{
  "_format": "hh-sol-artifact-1",
  "contractName": "ToyENS",
  "sourceName": "contracts/ToyENS.sol",
  "abi": [
    {
      "anonymous": false,
      "inputs": [
        {
          "indexed": false,
          "internalType": "string",
          "name": "name",
          "type": "string"
        },
        {
          "indexed": false,
          "internalType": "address",
          "name": "addr",
          "type": "address"
        }
      ],
      "name": "Set",
      "type": "event"
    },
    {
      "inputs": [],
      "name": "all",
      "outputs": [
        {
          "components": [
            {
              "internalType": "string",
              "name": "name",
              "type": "string"
            },
            {
              "internalType": "address",
              "name": "addr",
              "type": "address"
            },
            {
              "internalType": "uint256",
              "name": "timestamp",
              "type": "uint256"
            }
          ],
          "internalType": "struct Record[]",
          "name": "_records",
          "type": "tuple[]"
        }
      ],
      "stateMutability": "view",
      "type": "function"
    },
    {
      "inputs": [
        {
          "internalType": "string",
          "name": "_name",
          "type": "string"
        }
      ],
      "name": "get",
      "outputs": [
        {
          "internalType": "address payable",
          "name": "_addr",
          "type": "address"
        }
      ],
      "stateMutability": "view",
      "type": "function"
    },
    {
      "inputs": [
        {
          "internalType": "address",
          "name": "_addr",
          "type": "address"
        }
      ],
      "name": "getReverse",
      "outputs": [
        {
          "internalType": "string",
          "name": "_name",
          "type": "string"
        }
      ],
      "stateMutability": "view",
      "type": "function"
    },
    {
      "inputs": [
        {
          "internalType": "string",
          "name": "",
          "type": "string"
        }
      ],
      "name": "records",
      "outputs": [
        {
          "internalType": "string",
          "name": "name",
          "type": "string"
        },
        {
          "internalType": "address",
          "name": "addr",
          "type": "address"
        },
        {
          "internalType": "uint256",
          "name": "timestamp",
          "type": "uint256"
        }
      ],
      "stateMutability": "view",
      "type": "function"
    },
    {
      "inputs": [
        {
          "internalType": "address",
          "name": "",
          "type": "address"
        }
      ],
      "name": "reverse",
      "outputs": [
        {
          "internalType": "string",
          "name": "",
          "type": "string"
        }
      ],
      "stateMutability": "view",
      "type": "function"
    },
    {
      "inputs": [
        {
          "internalType": "string",
          "name": "_name",
          "type": "string"
        },
        {
          "internalType": "address",
          "name": "_addr",
          "type": "address"
        }
      ],
      "name": "set",
      "outputs": [],
      "stateMutability": "nonpayable",
      "type": "function"
    },
    {
      "inputs": [
        {
          "internalType": "string[]",
          "name": "_names",
          "type": "string[]"
        },
        {
          "internalType": "address[]",
          "name": "_addrs",
          "type": "address[]"
        }
      ],
      "name": "set",
      "outputs": [],
      "stateMutability": "nonpayable",
      "type": "function"
    }
  ],
  "bytecode": "0x608060405234801561001057600080fd5b50611a22806100206000396000f3fe608060405234801561001057600080fd5b506004361061007d5760003560e01c8063693ec85e1161005b578063693ec85e14610102578063a815ff1514610132578063e30bd7401461014e578063eba97ad71461017e5761007d565b806310c4e8b014610082578063541e771d146100a05780635c013858146100d2575b600080fd5b61008a61019a565b6040516100979190610d24565b60405180910390f35b6100ba60048036038101906100b59190610e8f565b610374565b6040516100c993929190610f40565b60405180910390f35b6100ec60048036038101906100e79190610faa565b61045c565b6040516100f99190610fd7565b60405180910390f35b61011c60048036038101906101179190611059565b610570565b60405161012991906110c7565b60405180910390f35b61014c600480360381019061014791906110e2565b61062d565b005b61016860048036038101906101639190610faa565b610977565b6040516101759190610fd7565b60405180910390f35b610198600480360381019061019391906111ee565b610a17565b005b606060028054905067ffffffffffffffff8111156101bb576101ba610d64565b5b6040519080825280602002602001820160405280156101f457816020015b6101e1610a94565b8152602001906001900390816101d95790505b50905060005b6002805490508110156103705760016002828154811061021d5761021c61126f565b5b9060005260206000200160405161023491906113a1565b908152602001604051809103902060405180606001604052908160008201805461025d906112cd565b80601f0160208091040260200160405190810160405280929190818152602001828054610289906112cd565b80156102d65780601f106102ab576101008083540402835291602001916102d6565b820191906000526020600020905b8154815290600101906020018083116102b957829003601f168201915b505050505081526020016001820160009054906101000a900473ffffffffffffffffffffffffffffffffffffffff1673ffffffffffffffffffffffffffffffffffffffff1673ffffffffffffffffffffffffffffffffffffffff1681526020016002820154815250508282815181106103525761035161126f565b5b60200260200101819052508080610368906113e7565b9150506101fa565b5090565b6001818051602081018201805184825260208301602085012081835280955050505050506000915090508060000180546103ad906112cd565b80601f01602080910402602001604051908101604052809291908181526020018280546103d9906112cd565b80156104265780601f106103fb57610100808354040283529160200191610426565b820191906000526020600020905b81548152906001019060200180831161040957829003601f168201915b5050505050908060010160009054906101000a900473ffffffffffffffffffffffffffffffffffffffff16908060020154905083565b60606000808373ffffffffffffffffffffffffffffffffffffffff1673ffffffffffffffffffffffffffffffffffffffff16815260200190815260200160002080546104a7906112cd565b80601f01602080910402602001604051908101604052809291908181526020018280546104d3906112cd565b80156105205780601f106104f557610100808354040283529160200191610520565b820191906000526020600020905b81548152906001019060200180831161050357829003601f168201915b50505050509050600081510361056b576040517f08c379a00000000000000000000000000000000000000000000000000000000081526004016105629061147b565b60405180910390fd5b919050565b6000600183836040516105849291906114c0565b908152602001604051809103902060010160009054906101000a900473ffffffffffffffffffffffffffffffffffffffff169050600073ffffffffffffffffffffffffffffffffffffffff168173ffffffffffffffffffffffffffffffffffffffff1603610627576040517f08c379a000000000000000000000000000000000000000000000000000000000815260040161061e90611525565b60405180910390fd5b92915050565b600073ffffffffffffffffffffffffffffffffffffffff168173ffffffffffffffffffffffffffffffffffffffff160361069c576040517f08c379a0000000000000000000000000000000000000000000000000000000008152600401610693906115b7565b60405180910390fd5b600073ffffffffffffffffffffffffffffffffffffffff16600184846040516106c69291906114c0565b908152602001604051809103902060010160009054906101000a900473ffffffffffffffffffffffffffffffffffffffff1673ffffffffffffffffffffffffffffffffffffffff1603610756576002838390918060018154018082558091505060019003906000526020600020016000909192909192909192909192509182610750929190611779565b506107ea565b60006001848460405161076a9291906114c0565b908152602001604051809103902060010160009054906101000a900473ffffffffffffffffffffffffffffffffffffffff1690506000808273ffffffffffffffffffffffffffffffffffffffff1673ffffffffffffffffffffffffffffffffffffffff16815260200190815260200160002060006107e89190610acb565b505b604051806060016040528084848080601f016020809104026020016040519081016040528093929190818152602001838380828437600081840152601f19601f8201169050808301925050505050505081526020018273ffffffffffffffffffffffffffffffffffffffff16815260200142815250600184846040516108719291906114c0565b908152602001604051809103902060008201518160000190816108949190611849565b5060208201518160010160006101000a81548173ffffffffffffffffffffffffffffffffffffffff021916908373ffffffffffffffffffffffffffffffffffffffff1602179055506040820151816002015590505082826000808473ffffffffffffffffffffffffffffffffffffffff1673ffffffffffffffffffffffffffffffffffffffff1681526020019081526020016000209182610936929190611779565b507f496595ced95720268cf8bc60bae3f35024ff2a130f73ac4e20f5c1eaca35db9983838360405161096a93929190611948565b60405180910390a1505050565b60006020528060005260406000206000915090508054610996906112cd565b80601f01602080910402602001604051908101604052809291908181526020018280546109c2906112cd565b8015610a0f5780601f106109e457610100808354040283529160200191610a0f565b820191906000526020600020905b8154815290600101906020018083116109f257829003601f168201915b505050505081565b60005b84849050811015610a8d57610a7a858583818110610a3b57610a3a61126f565b5b9050602002810190610a4d9190611989565b858585818110610a6057610a5f61126f565b5b9050602002016020810190610a759190610faa565b61062d565b8080610a85906113e7565b915050610a1a565b5050505050565b604051806060016040528060608152602001600073ffffffffffffffffffffffffffffffffffffffff168152602001600081525090565b508054610ad7906112cd565b6000825580601f10610ae95750610b08565b601f016020900490600052602060002090810190610b079190610b0b565b5b50565b5b80821115610b24576000816000905550600101610b0c565b5090565b600081519050919050565b600082825260208201905092915050565b6000819050602082019050919050565b600081519050919050565b600082825260208201905092915050565b60005b83811015610b8e578082015181840152602081019050610b73565b60008484015250505050565b6000601f19601f8301169050919050565b6000610bb682610b54565b610bc08185610b5f565b9350610bd0818560208601610b70565b610bd981610b9a565b840191505092915050565b600073ffffffffffffffffffffffffffffffffffffffff82169050919050565b6000610c0f82610be4565b9050919050565b610c1f81610c04565b82525050565b6000819050919050565b610c3881610c25565b82525050565b60006060830160008301518482036000860152610c5b8282610bab565b9150506020830151610c706020860182610c16565b506040830151610c836040860182610c2f565b508091505092915050565b6000610c9a8383610c3e565b905092915050565b6000602082019050919050565b6000610cba82610b28565b610cc48185610b33565b935083602082028501610cd685610b44565b8060005b85811015610d125784840389528151610cf38582610c8e565b9450610cfe83610ca2565b925060208a01995050600181019050610cda565b50829750879550505050505092915050565b60006020820190508181036000830152610d3e8184610caf565b905092915050565b6000604051905090565b600080fd5b600080fd5b600080fd5b600080fd5b7f4e487b7100000000000000000000000000000000000000000000000000000000600052604160045260246000fd5b610d9c82610b9a565b810181811067ffffffffffffffff82111715610dbb57610dba610d64565b5b80604052505050565b6000610dce610d46565b9050610dda8282610d93565b919050565b600067ffffffffffffffff821115610dfa57610df9610d64565b5b610e0382610b9a565b9050602081019050919050565b82818337600083830152505050565b6000610e32610e2d84610ddf565b610dc4565b905082815260208101848484011115610e4e57610e4d610d5f565b5b610e59848285610e10565b509392505050565b600082601f830112610e7657610e75610d5a565b5b8135610e86848260208601610e1f565b91505092915050565b600060208284031215610ea557610ea4610d50565b5b600082013567ffffffffffffffff811115610ec357610ec2610d55565b5b610ecf84828501610e61565b91505092915050565b600082825260208201905092915050565b6000610ef482610b54565b610efe8185610ed8565b9350610f0e818560208601610b70565b610f1781610b9a565b840191505092915050565b610f2b81610c04565b82525050565b610f3a81610c25565b82525050565b60006060820190508181036000830152610f5a8186610ee9565b9050610f696020830185610f22565b610f766040830184610f31565b949350505050565b610f8781610c04565b8114610f9257600080fd5b50565b600081359050610fa481610f7e565b92915050565b600060208284031215610fc057610fbf610d50565b5b6000610fce84828501610f95565b91505092915050565b60006020820190508181036000830152610ff18184610ee9565b905092915050565b600080fd5b600080fd5b60008083601f84011261101957611018610d5a565b5b8235905067ffffffffffffffff81111561103657611035610ff9565b5b60208301915083600182028301111561105257611051610ffe565b5b9250929050565b600080602083850312156110705761106f610d50565b5b600083013567ffffffffffffffff81111561108e5761108d610d55565b5b61109a85828601611003565b92509250509250929050565b60006110b182610be4565b9050919050565b6110c1816110a6565b82525050565b60006020820190506110dc60008301846110b8565b92915050565b6000806000604084860312156110fb576110fa610d50565b5b600084013567ffffffffffffffff81111561111957611118610d55565b5b61112586828701611003565b9350935050602061113886828701610f95565b9150509250925092565b60008083601f84011261115857611157610d5a565b5b8235905067ffffffffffffffff81111561117557611174610ff9565b5b60208301915083602082028301111561119157611190610ffe565b5b9250929050565b60008083601f8401126111ae576111ad610d5a565b5b8235905067ffffffffffffffff8111156111cb576111ca610ff9565b5b6020830191508360208202830111156111e7576111e6610ffe565b5b9250929050565b6000806000806040858703121561120857611207610d50565b5b600085013567ffffffffffffffff81111561122657611225610d55565b5b61123287828801611142565b9450945050602085013567ffffffffffffffff81111561125557611254610d55565b5b61126187828801611198565b925092505092959194509250565b7f4e487b7100000000000000000000000000000000000000000000000000000000600052603260045260246000fd5b7f4e487b7100000000000000000000000000000000000000000000000000000000600052602260045260246000fd5b600060028204905060018216806112e557607f821691505b6020821081036112f8576112f761129e565b5b50919050565b600081905092915050565b60008190508160005260206000209050919050565b6000815461132b816112cd565b61133581866112fe565b94506001821660008114611350576001811461136557611398565b60ff1983168652811515820286019350611398565b61136e85611309565b60005b8381101561139057815481890152600182019150602081019050611371565b838801955050505b50505092915050565b60006113ad828461131e565b915081905092915050565b7f4e487b7100000000000000000000000000000000000000000000000000000000600052601160045260246000fd5b60006113f282610c25565b91507fffffffffffffffffffffffffffffffffffffffffffffffffffffffffffffffff8203611424576114236113b8565b5b600182019050919050565b7f546f79454e533a206e616d65206e6f7420666f756e6400000000000000000000600082015250565b6000611465601683610ed8565b91506114708261142f565b602082019050919050565b6000602082019050818103600083015261149481611458565b9050919050565b60006114a783856112fe565b93506114b4838584610e10565b82840190509392505050565b60006114cd82848661149b565b91508190509392505050565b7f546f79454e533a2061646472657373206e6f7420666f756e6400000000000000600082015250565b600061150f601983610ed8565b915061151a826114d9565b602082019050919050565b6000602082019050818103600083015261153e81611502565b9050919050565b7f546f79454e533a2063616e6e6f74207265636f72642061206e616d652061732060008201527f3078300000000000000000000000000000000000000000000000000000000000602082015250565b60006115a1602383610ed8565b91506115ac82611545565b604082019050919050565b600060208201905081810360008301526115d081611594565b9050919050565b600082905092915050565b60006020601f8301049050919050565b600082821b905092915050565b60006008830261162f7fffffffffffffffffffffffffffffffffffffffffffffffffffffffffffffffff826115f2565b61163986836115f2565b95508019841693508086168417925050509392505050565b6000819050919050565b600061167661167161166c84610c25565b611651565b610c25565b9050919050565b6000819050919050565b6116908361165b565b6116a461169c8261167d565b8484546115ff565b825550505050565b600090565b6116b96116ac565b6116c4818484611687565b505050565b5b818110156116e8576116dd6000826116b1565b6001810190506116ca565b5050565b601f82111561172d576116fe81611309565b611707846115e2565b81016020851015611716578190505b61172a611722856115e2565b8301826116c9565b50505b505050565b600082821c905092915050565b600061175060001984600802611732565b1980831691505092915050565b6000611769838361173f565b9150826002028217905092915050565b61178383836115d7565b67ffffffffffffffff81111561179c5761179b610d64565b5b6117a682546112cd565b6117b18282856116ec565b6000601f8311600181146117e057600084156117ce578287013590505b6117d8858261175d565b865550611840565b601f1984166117ee86611309565b60005b82811015611816578489013582556001820191506020850194506020810190506117f1565b86831015611833578489013561182f601f89168261173f565b8355505b6001600288020188555050505b50505050505050565b61185282610b54565b67ffffffffffffffff81111561186b5761186a610d64565b5b61187582546112cd565b6118808282856116ec565b600060209050601f8311600181146118b357600084156118a1578287015190505b6118ab858261175d565b865550611913565b601f1984166118c186611309565b60005b828110156118e9578489015182556001820191506020850194506020810190506118c4565b868310156119065784890151611902601f89168261173f565b8355505b6001600288020188555050505b505050505050565b60006119278385610ed8565b9350611934838584610e10565b61193d83610b9a565b840190509392505050565b6000604082019050818103600083015261196381858761191b565b90506119726020830184610f22565b949350505050565b600080fd5b600080fd5b600080fd5b600080833560016020038436030381126119a6576119a561197a565b5b80840192508235915067ffffffffffffffff8211156119c8576119c761197f565b5b6020830192506001820236038313156119e4576119e3611984565b5b50925092905056fea26469706673582212205b8d2555391777fc3cb28104473959ee36ea651b3c1dfbaa27ff2a015471427264736f6c63430008150033",
  "linkReferences": {},
  "deployedLinkReferences": {}
}