{
  "_format": "hh-sol-artifact-1",
  "contractName": "ToyEAS",
  "sourceName": "contracts/ToyEAS.sol",
  "abi": [
    {
      "inputs": [
        {
          "internalType": "address",
          "name": "_from",
          "type": "address"
        },
        {
          "internalType": "uint256",
          "name": "_root",
          "type": "uint256"
        }
      ],
      "name": "attest",
      "outputs": [],
      "stateMutability": "nonpayable",
      "type": "function"
    },
    {
      "inputs": [
        {
          "internalType": "address",
          "name": "",
          "type": "address"
        }
      ],
      "name": "attestations",
      "outputs": [
        {
          "internalType": "uint256",
          "name": "",
          "type": "uint256"
        }
      ],
      "stateMutability": "view",
      "type": "function"
    },
    {
      "inputs": [
        {
          "internalType": "address",
          "name": "_portal",
          "type": "address"
        }
      ],
      "name": "initialize",
      "outputs": [],
      "stateMutability": "nonpayable",
      "type": "function"
    },
    {
      "inputs": [],
      "name": "initialized",
      "outputs": [
        {
          "internalType": "bool",
          "name": "",
          "type": "bool"
        }
      ],
      "stateMutability": "view",
      "type": "function"
    },
    {
      "inputs": [],
      "name": "portal",
      "outputs": [
        {
          "internalType": "address",
          "name": "",
          "type": "address"
        }
      ],
      "stateMutability": "view",
      "type": "function"
    }
  ],
  "bytecode": "0x60806040526000600160146101000a81548160ff02191690831515021790555034801561002b57600080fd5b506105858061003b6000396000f3fe608060405234801561001057600080fd5b50600436106100575760003560e01c8063158ef93e1461005c578063203570481461007a5780636425666b146100aa5780637899d57f146100c8578063c4d66de8146100e4575b600080fd5b610064610100565b60405161007191906102f1565b60405180910390f35b610094600480360381019061008f919061036f565b610113565b6040516100a191906103b5565b60405180910390f35b6100b261012b565b6040516100bf91906103df565b60405180910390f35b6100e260048036038101906100dd9190610426565b610151565b005b6100fe60048036038101906100f9919061036f565b610228565b005b600160149054906101000a900460ff1681565b60006020528060005260406000206000915090505481565b600160009054906101000a900473ffffffffffffffffffffffffffffffffffffffff1681565b600160009054906101000a900473ffffffffffffffffffffffffffffffffffffffff1673ffffffffffffffffffffffffffffffffffffffff163373ffffffffffffffffffffffffffffffffffffffff16146101e1576040517f08c379a00000000000000000000000000000000000000000000000000000000081526004016101d8906104c3565b60405180910390fd5b806000808473ffffffffffffffffffffffffffffffffffffffff1673ffffffffffffffffffffffffffffffffffffffff168152602001908152602001600020819055505050565b600160149054906101000a900460ff1615610278576040517f08c379a000000000000000000000000000000000000000000000000000000000815260040161026f9061052f565b60405180910390fd5b80600160006101000a81548173ffffffffffffffffffffffffffffffffffffffff021916908373ffffffffffffffffffffffffffffffffffffffff16021790555060018060146101000a81548160ff02191690831515021790555050565b60008115159050919050565b6102eb816102d6565b82525050565b600060208201905061030660008301846102e2565b92915050565b600080fd5b600073ffffffffffffffffffffffffffffffffffffffff82169050919050565b600061033c82610311565b9050919050565b61034c81610331565b811461035757600080fd5b50565b60008135905061036981610343565b92915050565b6000602082840312156103855761038461030c565b5b60006103938482850161035a565b91505092915050565b6000819050919050565b6103af8161039c565b82525050565b60006020820190506103ca60008301846103a6565b92915050565b6103d981610331565b82525050565b60006020820190506103f460008301846103d0565b92915050565b6104038161039c565b811461040e57600080fd5b50565b600081359050610420816103fa565b92915050565b6000806040838503121561043d5761043c61030c565b5b600061044b8582860161035a565b925050602061045c85828601610411565b9150509250929050565b600082825260208201905092915050565b7f4f6e6c7920706f7274616c2063616e2061747465737400000000000000000000600082015250565b60006104ad601683610466565b91506104b882610477565b602082019050919050565b600060208201905081810360008301526104dc816104a0565b9050919050565b7f436f6e747261637420616c726561647920696e697469616c697a656400000000600082015250565b6000610519601c83610466565b9150610524826104e3565b602082019050919050565b600060208201905081810360008301526105488161050c565b905091905056fea2646970667358221220200082ae868bd38f2c6ce5a73774bf0f7e5deacd8fc1baeb0220eb03210f771f64736f6c63430008150033",
  "linkReferences": {},
  "deployedLinkReferences": {}
}