{
  "_format": "hh-sol-artifact-1",
  "contractName": "ZybilPortal",
  "sourceName": "contracts/ZybilPortal.sol",
  "abi": [
    {
      "anonymous": false,
      "inputs": [
        {
          "indexed": false,
          "internalType": "bytes32",
          "name": "_key",
          "type": "bytes32"
        },
        {
          "indexed": false,
          "internalType": "bytes32",
          "name": "_name",
          "type": "bytes32"
        },
        {
          "indexed": false,
          "internalType": "uint256",
          "name": "_timestamp",
          "type": "uint256"
        },
        {
          "indexed": false,
          "internalType": "address",
          "name": "_address",
          "type": "address"
        }
      ],
      "name": "L2Message",
      "type": "event"
    },
    {
      "inputs": [],
      "name": "eas",
      "outputs": [
        {
          "internalType": "contract ToyEAS",
          "name": "",
          "type": "address"
        }
      ],
      "stateMutability": "view",
      "type": "function"
    },
    {
      "inputs": [],
      "name": "ens",
      "outputs": [
        {
          "internalType": "contract ToyENS",
          "name": "",
          "type": "address"
        }
      ],
      "stateMutability": "view",
      "type": "function"
    },
    {
      "inputs": [
        {
          "internalType": "address",
          "name": "_account",
          "type": "address"
        }
      ],
      "name": "getENSRecordAge",
      "outputs": [
        {
          "internalType": "string",
          "name": "_name",
          "type": "string"
        },
        {
          "internalType": "uint256",
          "name": "_timestamp",
          "type": "uint256"
        }
      ],
      "stateMutability": "view",
      "type": "function"
    },
    {
      "inputs": [
        {
          "internalType": "address",
          "name": "_registry",
          "type": "address"
        },
        {
          "internalType": "address",
          "name": "_ens",
          "type": "address"
        },
        {
          "internalType": "address",
          "name": "_eas",
          "type": "address"
        },
        {
          "internalType": "bytes32",
          "name": "_l2ZybilAddress",
          "type": "bytes32"
        }
      ],
      "name": "initialize",
      "outputs": [],
      "stateMutability": "nonpayable",
      "type": "function"
    },
    {
      "inputs": [],
      "name": "l2ZybilAddress",
      "outputs": [
        {
          "internalType": "bytes32",
          "name": "",
          "type": "bytes32"
        }
      ],
      "stateMutability": "view",
      "type": "function"
    },
    {
      "inputs": [
        {
          "internalType": "bytes",
          "name": "original",
          "type": "bytes"
        },
        {
          "internalType": "uint256",
          "name": "totalLength",
          "type": "uint256"
        }
      ],
      "name": "padZeros",
      "outputs": [
        {
          "internalType": "bytes",
          "name": "",
          "type": "bytes"
        }
      ],
      "stateMutability": "pure",
      "type": "function"
    },
    {
      "inputs": [
        {
          "internalType": "uint32",
          "name": "_deadline",
          "type": "uint32"
        },
        {
          "internalType": "bytes32",
          "name": "_redemptionHash",
          "type": "bytes32"
        },
        {
          "internalType": "bytes32",
          "name": "_consumptionHash",
          "type": "bytes32"
        }
      ],
      "name": "pushENSToAztec",
      "outputs": [
        {
          "internalType": "bytes32",
          "name": "_key",
          "type": "bytes32"
        }
      ],
      "stateMutability": "payable",
      "type": "function"
    },
    {
      "inputs": [],
      "name": "registry",
      "outputs": [
        {
          "internalType": "contract IRegistry",
          "name": "",
          "type": "address"
        }
      ],
      "stateMutability": "view",
      "type": "function"
    }
  ],
  "bytecode": "0x608060405234801561001057600080fd5b50611625806100206000396000f3fe60806040526004361061007b5760003560e01c8063898715d91161004e578063898715d91461012a5780638bdfc69414610155578063a5f50aa314610185578063f426f677146101c25761007b565b80633f15457f1461008057806363acc14d146100ab5780637b103999146100d45780638150864d146100ff575b600080fd5b34801561008c57600080fd5b50610095610200565b6040516100a2919061099a565b60405180910390f35b3480156100b757600080fd5b506100d260048036038101906100cd9190610a3d565b610226565b005b3480156100e057600080fd5b506100e9610366565b6040516100f69190610ac5565b60405180910390f35b34801561010b57600080fd5b5061011461038a565b6040516101219190610b01565b60405180910390f35b34801561013657600080fd5b5061013f6103b0565b60405161014c9190610b2b565b60405180910390f35b61016f600480360381019061016a9190610b82565b6103b6565b60405161017c9190610b2b565b60405180910390f35b34801561019157600080fd5b506101ac60048036038101906101a79190610d51565b6105fd565b6040516101b99190610e2c565b60405180910390f35b3480156101ce57600080fd5b506101e960048036038101906101e49190610e4e565b61073b565b6040516101f7929190610edf565b60405180910390f35b600160009054906101000a900473ffffffffffffffffffffffffffffffffffffffff1681565b60001515600460009054906101000a900460ff1615151461027c576040517f08c379a000000000000000000000000000000000000000000000000000000000815260040161027390610f5b565b60405180910390fd5b836000806101000a81548173ffffffffffffffffffffffffffffffffffffffff021916908373ffffffffffffffffffffffffffffffffffffffff16021790555082600160006101000a81548173ffffffffffffffffffffffffffffffffffffffff021916908373ffffffffffffffffffffffffffffffffffffffff16021790555081600260006101000a81548173ffffffffffffffffffffffffffffffffffffffff021916908373ffffffffffffffffffffffffffffffffffffffff160217905550806003819055506001600460006101000a81548160ff02191690831515021790555050505050565b60008054906101000a900473ffffffffffffffffffffffffffffffffffffffff1681565b600260009054906101000a900473ffffffffffffffffffffffffffffffffffffffff1681565b60035481565b60008060008054906101000a900473ffffffffffffffffffffffffffffffffffffffff1673ffffffffffffffffffffffffffffffffffffffff1663368c093c6040518163ffffffff1660e01b8152600401602060405180830381865afa158015610424573d6000803e3d6000fd5b505050506040513d601f19601f820116820180604052508101906104489190610fb9565b9050600060405180604001604052806003548152602001600181525090506000806104723361073b565b9150915060006104838360206105fd565b61048c90611018565b9050600061052c898385336040516024016104aa949392919061108e565b6040516020818303038152906040527f5e8d7e7e000000000000000000000000000000000000000000000000000000007bffffffffffffffffffffffffffffffffffffffffffffffffffffffff19166020820180517bffffffffffffffffffffffffffffffffffffffffffffffffffffffff8381831617835250505050610891565b90508573ffffffffffffffffffffffffffffffffffffffff166333d49f9634878d858d6040518663ffffffff1660e01b815260040161056e949392919061112f565b60206040518083038185885af115801561058c573d6000803e3d6000fd5b50505050506040513d601f19601f820116820180604052508101906105b19190611189565b96507f8f9818fcd5fdb4db55110b697168bc76da39b2e661860ce0b76a34408c1e47f9878385336040516105e8949392919061108e565b60405180910390a15050505050509392505050565b60608251821015610643576040517f08c379a000000000000000000000000000000000000000000000000000000000815260040161063a9061124e565b60405180910390fd5b60008267ffffffffffffffff81111561065f5761065e610bf0565b5b6040519080825280601f01601f1916602001820160405280156106915781602001600182028036833780820191505090505b50905060008451846106a3919061129d565b905060005b855181101561072f578581815181106106c4576106c36112d1565b5b602001015160f81c60f81b8383836106dc9190611300565b815181106106ed576106ec6112d1565b5b60200101907effffffffffffffffffffffffffffffffffffffffffffffffffffffffffffff1916908160001a905350808061072790611334565b9150506106a8565b50819250505092915050565b60606000600160009054906101000a900473ffffffffffffffffffffffffffffffffffffffff1673ffffffffffffffffffffffffffffffffffffffff16635c013858846040518263ffffffff1660e01b815260040161079a919061137c565b600060405180830381865afa1580156107b7573d6000803e3d6000fd5b505050506040513d6000823e3d601f19601f820116820180604052508101906107e09190611438565b9150600160009054906101000a900473ffffffffffffffffffffffffffffffffffffffff1673ffffffffffffffffffffffffffffffffffffffff1663541e771d836040518263ffffffff1660e01b815260040161083d9190611481565b600060405180830381865afa15801561085a573d6000803e3d6000fd5b505050506040513d6000823e3d601f19601f8201168201806040525081019061088391906114cd565b909150905080915050915091565b60007f30644e72e131a029b85045b68181585d2833e84879b9709143e1f593f00000016002836040516108c49190611578565b602060405180830381855afa1580156108e1573d6000803e3d6000fd5b5050506040513d601f19601f820116820180604052508101906109049190611189565b60001c61091191906115be565b60001b9050919050565b600073ffffffffffffffffffffffffffffffffffffffff82169050919050565b6000819050919050565b600061096061095b6109568461091b565b61093b565b61091b565b9050919050565b600061097282610945565b9050919050565b600061098482610967565b9050919050565b61099481610979565b82525050565b60006020820190506109af600083018461098b565b92915050565b6000604051905090565b600080fd5b600080fd5b60006109d48261091b565b9050919050565b6109e4816109c9565b81146109ef57600080fd5b50565b600081359050610a01816109db565b92915050565b6000819050919050565b610a1a81610a07565b8114610a2557600080fd5b50565b600081359050610a3781610a11565b92915050565b60008060008060808587031215610a5757610a566109bf565b5b6000610a65878288016109f2565b9450506020610a76878288016109f2565b9350506040610a87878288016109f2565b9250506060610a9887828801610a28565b91505092959194509250565b6000610aaf82610967565b9050919050565b610abf81610aa4565b82525050565b6000602082019050610ada6000830184610ab6565b92915050565b6000610aeb82610967565b9050919050565b610afb81610ae0565b82525050565b6000602082019050610b166000830184610af2565b92915050565b610b2581610a07565b82525050565b6000602082019050610b406000830184610b1c565b92915050565b600063ffffffff82169050919050565b610b5f81610b46565b8114610b6a57600080fd5b50565b600081359050610b7c81610b56565b92915050565b600080600060608486031215610b9b57610b9a6109bf565b5b6000610ba986828701610b6d565b9350506020610bba86828701610a28565b9250506040610bcb86828701610a28565b9150509250925092565b600080fd5b600080fd5b6000601f19601f8301169050919050565b7f4e487b7100000000000000000000000000000000000000000000000000000000600052604160045260246000fd5b610c2882610bdf565b810181811067ffffffffffffffff82111715610c4757610c46610bf0565b5b80604052505050565b6000610c5a6109b5565b9050610c668282610c1f565b919050565b600067ffffffffffffffff821115610c8657610c85610bf0565b5b610c8f82610bdf565b9050602081019050919050565b82818337600083830152505050565b6000610cbe610cb984610c6b565b610c50565b905082815260208101848484011115610cda57610cd9610bda565b5b610ce5848285610c9c565b509392505050565b600082601f830112610d0257610d01610bd5565b5b8135610d12848260208601610cab565b91505092915050565b6000819050919050565b610d2e81610d1b565b8114610d3957600080fd5b50565b600081359050610d4b81610d25565b92915050565b60008060408385031215610d6857610d676109bf565b5b600083013567ffffffffffffffff811115610d8657610d856109c4565b5b610d9285828601610ced565b9250506020610da385828601610d3c565b9150509250929050565b600081519050919050565b600082825260208201905092915050565b60005b83811015610de7578082015181840152602081019050610dcc565b60008484015250505050565b6000610dfe82610dad565b610e088185610db8565b9350610e18818560208601610dc9565b610e2181610bdf565b840191505092915050565b60006020820190508181036000830152610e468184610df3565b905092915050565b600060208284031215610e6457610e636109bf565b5b6000610e72848285016109f2565b91505092915050565b600081519050919050565b600082825260208201905092915050565b6000610ea282610e7b565b610eac8185610e86565b9350610ebc818560208601610dc9565b610ec581610bdf565b840191505092915050565b610ed981610d1b565b82525050565b60006040820190508181036000830152610ef98185610e97565b9050610f086020830184610ed0565b9392505050565b7f416c726561647920696e697469616c697a656400000000000000000000000000600082015250565b6000610f45601383610e86565b9150610f5082610f0f565b602082019050919050565b60006020820190508181036000830152610f7481610f38565b9050919050565b6000610f86826109c9565b9050919050565b610f9681610f7b565b8114610fa157600080fd5b50565b600081519050610fb381610f8d565b92915050565b600060208284031215610fcf57610fce6109bf565b5b6000610fdd84828501610fa4565b91505092915050565b6000819050602082019050919050565b60006110028251610a07565b80915050919050565b600082821b905092915050565b600061102382610dad565b8261102d84610fe6565b905061103881610ff6565b92506020821015611078576110737fffffffffffffffffffffffffffffffffffffffffffffffffffffffffffffffff8360200360080261100b565b831692505b5050919050565b611088816109c9565b82525050565b60006080820190506110a36000830187610b1c565b6110b06020830186610b1c565b6110bd6040830185610ed0565b6110ca606083018461107f565b95945050505050565b6110dc81610a07565b82525050565b6110eb81610d1b565b82525050565b60408201600082015161110760008501826110d3565b50602082015161111a60208501826110e2565b50505050565b61112981610b46565b82525050565b600060a08201905061114460008301876110f1565b6111516040830186611120565b61115e6060830185610b1c565b61116b6080830184610b1c565b95945050505050565b60008151905061118381610a11565b92915050565b60006020828403121561119f5761119e6109bf565b5b60006111ad84828501611174565b91505092915050565b7f546f74616c206c656e677468206d75737420626520677265617465722074686160008201527f6e206f7220657175616c20746f20746865206f726967696e616c206c656e677460208201527f6800000000000000000000000000000000000000000000000000000000000000604082015250565b6000611238604183610e86565b9150611243826111b6565b606082019050919050565b600060208201905081810360008301526112678161122b565b9050919050565b7f4e487b7100000000000000000000000000000000000000000000000000000000600052601160045260246000fd5b60006112a882610d1b565b91506112b383610d1b565b92508282039050818111156112cb576112ca61126e565b5b92915050565b7f4e487b7100000000000000000000000000000000000000000000000000000000600052603260045260246000fd5b600061130b82610d1b565b915061131683610d1b565b925082820190508082111561132e5761132d61126e565b5b92915050565b600061133f82610d1b565b91507fffffffffffffffffffffffffffffffffffffffffffffffffffffffffffffffff82036113715761137061126e565b5b600182019050919050565b6000602082019050611391600083018461107f565b92915050565b600067ffffffffffffffff8211156113b2576113b1610bf0565b5b6113bb82610bdf565b9050602081019050919050565b60006113db6113d684611397565b610c50565b9050828152602081018484840111156113f7576113f6610bda565b5b611402848285610dc9565b509392505050565b600082601f83011261141f5761141e610bd5565b5b815161142f8482602086016113c8565b91505092915050565b60006020828403121561144e5761144d6109bf565b5b600082015167ffffffffffffffff81111561146c5761146b6109c4565b5b6114788482850161140a565b91505092915050565b6000602082019050818103600083015261149b8184610e97565b905092915050565b6000815190506114b2816109db565b92915050565b6000815190506114c781610d25565b92915050565b6000806000606084860312156114e6576114e56109bf565b5b600084015167ffffffffffffffff811115611504576115036109c4565b5b6115108682870161140a565b9350506020611521868287016114a3565b9250506040611532868287016114b8565b9150509250925092565b600081905092915050565b600061155282610dad565b61155c818561153c565b935061156c818560208601610dc9565b80840191505092915050565b60006115848284611547565b915081905092915050565b7f4e487b7100000000000000000000000000000000000000000000000000000000600052601260045260246000fd5b60006115c982610d1b565b91506115d483610d1b565b9250826115e4576115e361158f565b5b82820690509291505056fea26469706673582212209375498151662012cdba4e32c6e354bef9c9b6a77a980d5101f1ae2db991983264736f6c63430008150033",
  "linkReferences": {},
  "deployedLinkReferences": {}
}