{
  "_format": "hh-sol-artifact-1",
  "contractName": "ZybilPortal",
  "sourceName": "contracts/ZybilPortal.sol",
  "abi": [
    {
      "anonymous": false,
      "inputs": [
        {
          "indexed": false,
          "internalType": "bytes32",
          "name": "_key",
          "type": "bytes32"
        },
        {
          "indexed": false,
          "internalType": "bytes32",
          "name": "_name",
          "type": "bytes32"
        },
        {
          "indexed": false,
          "internalType": "uint256",
          "name": "_timestamp",
          "type": "uint256"
        },
        {
          "indexed": false,
          "internalType": "address",
          "name": "_address",
          "type": "address"
        },
        {
          "indexed": false,
          "internalType": "bytes32",
          "name": "_contentHash",
          "type": "bytes32"
        }
      ],
      "name": "L2Message",
      "type": "event"
    },
    {
      "inputs": [
        {
          "internalType": "address",
          "name": "_account",
          "type": "address"
        }
      ],
      "name": "getENSRecordAge",
      "outputs": [
        {
          "internalType": "string",
          "name": "_name",
          "type": "string"
        },
        {
          "internalType": "uint256",
          "name": "_timestamp",
          "type": "uint256"
        }
      ],
      "stateMutability": "view",
      "type": "function"
    },
    {
      "inputs": [
        {
          "internalType": "address",
          "name": "_registry",
          "type": "address"
        },
        {
          "internalType": "address",
          "name": "_underlying",
          "type": "address"
        },
        {
          "internalType": "bytes32",
          "name": "_l2ZybilAddress",
          "type": "bytes32"
        }
      ],
      "name": "initialize",
      "outputs": [],
      "stateMutability": "nonpayable",
      "type": "function"
    },
    {
      "inputs": [],
      "name": "l2ZybilAddress",
      "outputs": [
        {
          "internalType": "bytes32",
          "name": "",
          "type": "bytes32"
        }
      ],
      "stateMutability": "view",
      "type": "function"
    },
    {
      "inputs": [
        {
          "internalType": "uint32",
          "name": "_deadline",
          "type": "uint32"
        },
        {
          "internalType": "bytes32",
          "name": "_name",
          "type": "bytes32"
        },
        {
          "internalType": "bytes32",
          "name": "_redemptionHash",
          "type": "bytes32"
        },
        {
          "internalType": "bytes32",
          "name": "_consumptionHash",
          "type": "bytes32"
        }
      ],
      "name": "pushENSToAztec",
      "outputs": [
        {
          "internalType": "bytes32",
          "name": "_key",
          "type": "bytes32"
        }
      ],
      "stateMutability": "payable",
      "type": "function"
    },
    {
      "inputs": [],
      "name": "registry",
      "outputs": [
        {
          "internalType": "contract IRegistry",
          "name": "",
          "type": "address"
        }
      ],
      "stateMutability": "view",
      "type": "function"
    },
    {
      "inputs": [],
      "name": "underlying",
      "outputs": [
        {
          "internalType": "contract ToyENS",
          "name": "",
          "type": "address"
        }
      ],
      "stateMutability": "view",
      "type": "function"
    }
  ],
  "bytecode": "0x608060405234801561001057600080fd5b50611003806100206000396000f3fe6080604052600436106100555760003560e01c80636133f9851461005a5780636f307dc3146100835780637b103999146100ae578063898715d9146100d957806397c34a9314610104578063f426f67714610134575b600080fd5b34801561006657600080fd5b50610081600480360381019061007c9190610776565b610172565b005b34801561008f57600080fd5b50610098610270565b6040516100a59190610828565b60405180910390f35b3480156100ba57600080fd5b506100c3610296565b6040516100d09190610864565b60405180910390f35b3480156100e557600080fd5b506100ee6102ba565b6040516100fb919061088e565b60405180910390f35b61011e600480360381019061011991906108e5565b6102c0565b60405161012b919061088e565b60405180910390f35b34801561014057600080fd5b5061015b6004803603810190610156919061094c565b6104ee565b604051610169929190610a22565b60405180910390f35b60001515600360009054906101000a900460ff161515146101c8576040517f08c379a00000000000000000000000000000000000000000000000000000000081526004016101bf90610a9e565b60405180910390fd5b826000806101000a81548173ffffffffffffffffffffffffffffffffffffffff021916908373ffffffffffffffffffffffffffffffffffffffff16021790555081600160006101000a81548173ffffffffffffffffffffffffffffffffffffffff021916908373ffffffffffffffffffffffffffffffffffffffff160217905550806002819055506001600360006101000a81548160ff021916908315150217905550505050565b600160009054906101000a900473ffffffffffffffffffffffffffffffffffffffff1681565b60008054906101000a900473ffffffffffffffffffffffffffffffffffffffff1681565b60025481565b60008060008054906101000a900473ffffffffffffffffffffffffffffffffffffffff1673ffffffffffffffffffffffffffffffffffffffff1663368c093c6040518163ffffffff1660e01b8152600401602060405180830381865afa15801561032e573d6000803e3d6000fd5b505050506040513d601f19601f820116820180604052508101906103529190610afc565b905060006040518060400160405280600254815260200160018152509050600061037b336104ee565b915050600061041c8789843360405160240161039a9493929190610b38565b6040516020818303038152906040527f5e8d7e7e000000000000000000000000000000000000000000000000000000007bffffffffffffffffffffffffffffffffffffffffffffffffffffffff19166020820180517bffffffffffffffffffffffffffffffffffffffffffffffffffffffff8381831617835250505050610644565b90508373ffffffffffffffffffffffffffffffffffffffff166333d49f9634858c858b6040518663ffffffff1660e01b815260040161045e9493929190610bd9565b60206040518083038185885af115801561047c573d6000803e3d6000fd5b50505050506040513d601f19601f820116820180604052508101906104a19190610c33565b94507f17bf269e84d03cb6c3a2b105a374600c6ffacd8497303700822c27fe1969194e85898433856040516104da959493929190610c60565b60405180910390a150505050949350505050565b60606000600160009054906101000a900473ffffffffffffffffffffffffffffffffffffffff1673ffffffffffffffffffffffffffffffffffffffff16635c013858846040518263ffffffff1660e01b815260040161054d9190610cb3565b600060405180830381865afa15801561056a573d6000803e3d6000fd5b505050506040513d6000823e3d601f19601f820116820180604052508101906105939190610df4565b9150600160009054906101000a900473ffffffffffffffffffffffffffffffffffffffff1673ffffffffffffffffffffffffffffffffffffffff1663541e771d836040518263ffffffff1660e01b81526004016105f09190610e3d565b600060405180830381865afa15801561060d573d6000803e3d6000fd5b505050506040513d6000823e3d601f19601f820116820180604052508101906106369190610ea0565b909150905080915050915091565b60007f30644e72e131a029b85045b68181585d2833e84879b9709143e1f593f00000016002836040516106779190610f56565b602060405180830381855afa158015610694573d6000803e3d6000fd5b5050506040513d601f19601f820116820180604052508101906106b79190610c33565b60001c6106c49190610f9c565b60001b9050919050565b6000604051905090565b600080fd5b600080fd5b600073ffffffffffffffffffffffffffffffffffffffff82169050919050565b600061070d826106e2565b9050919050565b61071d81610702565b811461072857600080fd5b50565b60008135905061073a81610714565b92915050565b6000819050919050565b61075381610740565b811461075e57600080fd5b50565b6000813590506107708161074a565b92915050565b60008060006060848603121561078f5761078e6106d8565b5b600061079d8682870161072b565b93505060206107ae8682870161072b565b92505060406107bf86828701610761565b9150509250925092565b6000819050919050565b60006107ee6107e96107e4846106e2565b6107c9565b6106e2565b9050919050565b6000610800826107d3565b9050919050565b6000610812826107f5565b9050919050565b61082281610807565b82525050565b600060208201905061083d6000830184610819565b92915050565b600061084e826107f5565b9050919050565b61085e81610843565b82525050565b60006020820190506108796000830184610855565b92915050565b61088881610740565b82525050565b60006020820190506108a3600083018461087f565b92915050565b600063ffffffff82169050919050565b6108c2816108a9565b81146108cd57600080fd5b50565b6000813590506108df816108b9565b92915050565b600080600080608085870312156108ff576108fe6106d8565b5b600061090d878288016108d0565b945050602061091e87828801610761565b935050604061092f87828801610761565b925050606061094087828801610761565b91505092959194509250565b600060208284031215610962576109616106d8565b5b60006109708482850161072b565b91505092915050565b600081519050919050565b600082825260208201905092915050565b60005b838110156109b3578082015181840152602081019050610998565b60008484015250505050565b6000601f19601f8301169050919050565b60006109db82610979565b6109e58185610984565b93506109f5818560208601610995565b6109fe816109bf565b840191505092915050565b6000819050919050565b610a1c81610a09565b82525050565b60006040820190508181036000830152610a3c81856109d0565b9050610a4b6020830184610a13565b9392505050565b7f416c726561647920696e697469616c697a656400000000000000000000000000600082015250565b6000610a88601383610984565b9150610a9382610a52565b602082019050919050565b60006020820190508181036000830152610ab781610a7b565b9050919050565b6000610ac982610702565b9050919050565b610ad981610abe565b8114610ae457600080fd5b50565b600081519050610af681610ad0565b92915050565b600060208284031215610b1257610b116106d8565b5b6000610b2084828501610ae7565b91505092915050565b610b3281610702565b82525050565b6000608082019050610b4d600083018761087f565b610b5a602083018661087f565b610b676040830185610a13565b610b746060830184610b29565b95945050505050565b610b8681610740565b82525050565b610b9581610a09565b82525050565b604082016000820151610bb16000850182610b7d565b506020820151610bc46020850182610b8c565b50505050565b610bd3816108a9565b82525050565b600060a082019050610bee6000830187610b9b565b610bfb6040830186610bca565b610c08606083018561087f565b610c15608083018461087f565b95945050505050565b600081519050610c2d8161074a565b92915050565b600060208284031215610c4957610c486106d8565b5b6000610c5784828501610c1e565b91505092915050565b600060a082019050610c75600083018861087f565b610c82602083018761087f565b610c8f6040830186610a13565b610c9c6060830185610b29565b610ca9608083018461087f565b9695505050505050565b6000602082019050610cc86000830184610b29565b92915050565b600080fd5b600080fd5b7f4e487b7100000000000000000000000000000000000000000000000000000000600052604160045260246000fd5b610d10826109bf565b810181811067ffffffffffffffff82111715610d2f57610d2e610cd8565b5b80604052505050565b6000610d426106ce565b9050610d4e8282610d07565b919050565b600067ffffffffffffffff821115610d6e57610d6d610cd8565b5b610d77826109bf565b9050602081019050919050565b6000610d97610d9284610d53565b610d38565b905082815260208101848484011115610db357610db2610cd3565b5b610dbe848285610995565b509392505050565b600082601f830112610ddb57610dda610cce565b5b8151610deb848260208601610d84565b91505092915050565b600060208284031215610e0a57610e096106d8565b5b600082015167ffffffffffffffff811115610e2857610e276106dd565b5b610e3484828501610dc6565b91505092915050565b60006020820190508181036000830152610e5781846109d0565b905092915050565b600081519050610e6e81610714565b92915050565b610e7d81610a09565b8114610e8857600080fd5b50565b600081519050610e9a81610e74565b92915050565b600080600060608486031215610eb957610eb86106d8565b5b600084015167ffffffffffffffff811115610ed757610ed66106dd565b5b610ee386828701610dc6565b9350506020610ef486828701610e5f565b9250506040610f0586828701610e8b565b9150509250925092565b600081519050919050565b600081905092915050565b6000610f3082610f0f565b610f3a8185610f1a565b9350610f4a818560208601610995565b80840191505092915050565b6000610f628284610f25565b915081905092915050565b7f4e487b7100000000000000000000000000000000000000000000000000000000600052601260045260246000fd5b6000610fa782610a09565b9150610fb283610a09565b925082610fc257610fc1610f6d565b5b82820690509291505056fea264697066735822122045afa204019522a2eed4b6a7b932c9f2cc4c2c257f82e5b05ec9afcfbb5f49f364736f6c63430008150033",
  "linkReferences": {},
  "deployedLinkReferences": {}
}