{
  "_format": "hh-sol-artifact-1",
  "contractName": "ZybilPortal",
  "sourceName": "contracts/ZybilPortal.sol",
  "abi": [
    {
      "anonymous": false,
      "inputs": [
        {
          "indexed": false,
          "internalType": "bytes32",
          "name": "_key",
          "type": "bytes32"
        }
      ],
      "name": "L2Message",
      "type": "event"
    },
    {
      "inputs": [
        {
          "internalType": "address",
          "name": "_account",
          "type": "address"
        }
      ],
      "name": "getENSRecordAge",
      "outputs": [
        {
          "internalType": "string",
          "name": "_name",
          "type": "string"
        },
        {
          "internalType": "uint256",
          "name": "_timestamp",
          "type": "uint256"
        }
      ],
      "stateMutability": "view",
      "type": "function"
    },
    {
      "inputs": [
        {
          "internalType": "address",
          "name": "_registry",
          "type": "address"
        },
        {
          "internalType": "address",
          "name": "_underlying",
          "type": "address"
        },
        {
          "internalType": "bytes32",
          "name": "_l2ZybilAddress",
          "type": "bytes32"
        }
      ],
      "name": "initialize",
      "outputs": [],
      "stateMutability": "nonpayable",
      "type": "function"
    },
    {
      "inputs": [],
      "name": "l2ZybilAddress",
      "outputs": [
        {
          "internalType": "bytes32",
          "name": "",
          "type": "bytes32"
        }
      ],
      "stateMutability": "view",
      "type": "function"
    },
    {
      "inputs": [
        {
          "internalType": "uint32",
          "name": "_deadline",
          "type": "uint32"
        },
        {
          "internalType": "bytes32",
          "name": "_redemptionHash",
          "type": "bytes32"
        },
        {
          "internalType": "bytes32",
          "name": "_consumptionHash",
          "type": "bytes32"
        }
      ],
      "name": "pushENSToAztec",
      "outputs": [
        {
          "internalType": "bytes32",
          "name": "_key",
          "type": "bytes32"
        }
      ],
      "stateMutability": "payable",
      "type": "function"
    },
    {
      "inputs": [],
      "name": "registry",
      "outputs": [
        {
          "internalType": "contract IRegistry",
          "name": "",
          "type": "address"
        }
      ],
      "stateMutability": "view",
      "type": "function"
    },
    {
      "inputs": [],
      "name": "underlying",
      "outputs": [
        {
          "internalType": "contract ToyENS",
          "name": "",
          "type": "address"
        }
      ],
      "stateMutability": "view",
      "type": "function"
    }
  ],
  "bytecode": "0x608060405234801561001057600080fd5b50611038806100206000396000f3fe6080604052600436106100555760003560e01c80636133f9851461005a5780636f307dc3146100835780637b103999146100ae578063898715d9146100d95780638bdfc69414610104578063f426f67714610134575b600080fd5b34801561006657600080fd5b50610081600480360381019061007c9190610779565b610172565b005b34801561008f57600080fd5b50610098610270565b6040516100a5919061082b565b60405180910390f35b3480156100ba57600080fd5b506100c3610296565b6040516100d09190610867565b60405180910390f35b3480156100e557600080fd5b506100ee6102ba565b6040516100fb9190610891565b60405180910390f35b61011e600480360381019061011991906108e8565b6102c0565b60405161012b9190610891565b60405180910390f35b34801561014057600080fd5b5061015b6004803603810190610156919061093b565b6104f1565b604051610169929190610a11565b60405180910390f35b60001515600360009054906101000a900460ff161515146101c8576040517f08c379a00000000000000000000000000000000000000000000000000000000081526004016101bf90610a8d565b60405180910390fd5b826000806101000a81548173ffffffffffffffffffffffffffffffffffffffff021916908373ffffffffffffffffffffffffffffffffffffffff16021790555081600160006101000a81548173ffffffffffffffffffffffffffffffffffffffff021916908373ffffffffffffffffffffffffffffffffffffffff160217905550806002819055506001600360006101000a81548160ff021916908315150217905550505050565b600160009054906101000a900473ffffffffffffffffffffffffffffffffffffffff1681565b60008054906101000a900473ffffffffffffffffffffffffffffffffffffffff1681565b60025481565b60008060008054906101000a900473ffffffffffffffffffffffffffffffffffffffff1673ffffffffffffffffffffffffffffffffffffffff1663368c093c6040518163ffffffff1660e01b8152600401602060405180830381865afa15801561032e573d6000803e3d6000fd5b505050506040513d601f19601f820116820180604052508101906103529190610aeb565b90506000604051806040016040528060025481526020016001815250905060008061037c336104f1565b915091506000610427888461039090610b55565b84336040516024016103a59493929190610bcb565b6040516020818303038152906040527f5e8d7e7e000000000000000000000000000000000000000000000000000000007bffffffffffffffffffffffffffffffffffffffffffffffffffffffff19166020820180517bffffffffffffffffffffffffffffffffffffffffffffffffffffffff8381831617835250505050610647565b90508473ffffffffffffffffffffffffffffffffffffffff166333d49f9634868c858c6040518663ffffffff1660e01b81526004016104699493929190610c6c565b60206040518083038185885af1158015610487573d6000803e3d6000fd5b50505050506040513d601f19601f820116820180604052508101906104ac9190610cc6565b95507f128acbf0e82e2ab690a4aa4c77e678ddf3ac638a064d0c48e585918fe1c8e4a1866040516104dd9190610891565b60405180910390a150505050509392505050565b60606000600160009054906101000a900473ffffffffffffffffffffffffffffffffffffffff1673ffffffffffffffffffffffffffffffffffffffff16635c013858846040518263ffffffff1660e01b81526004016105509190610cf3565b600060405180830381865afa15801561056d573d6000803e3d6000fd5b505050506040513d6000823e3d601f19601f820116820180604052508101906105969190610e34565b9150600160009054906101000a900473ffffffffffffffffffffffffffffffffffffffff1673ffffffffffffffffffffffffffffffffffffffff1663541e771d836040518263ffffffff1660e01b81526004016105f39190610e7d565b600060405180830381865afa158015610610573d6000803e3d6000fd5b505050506040513d6000823e3d601f19601f820116820180604052508101906106399190610ee0565b909150905080915050915091565b60007f30644e72e131a029b85045b68181585d2833e84879b9709143e1f593f000000160028360405161067a9190610f8b565b602060405180830381855afa158015610697573d6000803e3d6000fd5b5050506040513d601f19601f820116820180604052508101906106ba9190610cc6565b60001c6106c79190610fd1565b60001b9050919050565b6000604051905090565b600080fd5b600080fd5b600073ffffffffffffffffffffffffffffffffffffffff82169050919050565b6000610710826106e5565b9050919050565b61072081610705565b811461072b57600080fd5b50565b60008135905061073d81610717565b92915050565b6000819050919050565b61075681610743565b811461076157600080fd5b50565b6000813590506107738161074d565b92915050565b600080600060608486031215610792576107916106db565b5b60006107a08682870161072e565b93505060206107b18682870161072e565b92505060406107c286828701610764565b9150509250925092565b6000819050919050565b60006107f16107ec6107e7846106e5565b6107cc565b6106e5565b9050919050565b6000610803826107d6565b9050919050565b6000610815826107f8565b9050919050565b6108258161080a565b82525050565b6000602082019050610840600083018461081c565b92915050565b6000610851826107f8565b9050919050565b61086181610846565b82525050565b600060208201905061087c6000830184610858565b92915050565b61088b81610743565b82525050565b60006020820190506108a66000830184610882565b92915050565b600063ffffffff82169050919050565b6108c5816108ac565b81146108d057600080fd5b50565b6000813590506108e2816108bc565b92915050565b600080600060608486031215610901576109006106db565b5b600061090f868287016108d3565b935050602061092086828701610764565b925050604061093186828701610764565b9150509250925092565b600060208284031215610951576109506106db565b5b600061095f8482850161072e565b91505092915050565b600081519050919050565b600082825260208201905092915050565b60005b838110156109a2578082015181840152602081019050610987565b60008484015250505050565b6000601f19601f8301169050919050565b60006109ca82610968565b6109d48185610973565b93506109e4818560208601610984565b6109ed816109ae565b840191505092915050565b6000819050919050565b610a0b816109f8565b82525050565b60006040820190508181036000830152610a2b81856109bf565b9050610a3a6020830184610a02565b9392505050565b7f416c726561647920696e697469616c697a656400000000000000000000000000600082015250565b6000610a77601383610973565b9150610a8282610a41565b602082019050919050565b60006020820190508181036000830152610aa681610a6a565b9050919050565b6000610ab882610705565b9050919050565b610ac881610aad565b8114610ad357600080fd5b50565b600081519050610ae581610abf565b92915050565b600060208284031215610b0157610b006106db565b5b6000610b0f84828501610ad6565b91505092915050565b600081519050919050565b6000819050602082019050919050565b6000610b3f8251610743565b80915050919050565b600082821b905092915050565b6000610b6082610b18565b82610b6a84610b23565b9050610b7581610b33565b92506020821015610bb557610bb07fffffffffffffffffffffffffffffffffffffffffffffffffffffffffffffffff83602003600802610b48565b831692505b5050919050565b610bc581610705565b82525050565b6000608082019050610be06000830187610882565b610bed6020830186610882565b610bfa6040830185610a02565b610c076060830184610bbc565b95945050505050565b610c1981610743565b82525050565b610c28816109f8565b82525050565b604082016000820151610c446000850182610c10565b506020820151610c576020850182610c1f565b50505050565b610c66816108ac565b82525050565b600060a082019050610c816000830187610c2e565b610c8e6040830186610c5d565b610c9b6060830185610882565b610ca86080830184610882565b95945050505050565b600081519050610cc08161074d565b92915050565b600060208284031215610cdc57610cdb6106db565b5b6000610cea84828501610cb1565b91505092915050565b6000602082019050610d086000830184610bbc565b92915050565b600080fd5b600080fd5b7f4e487b7100000000000000000000000000000000000000000000000000000000600052604160045260246000fd5b610d50826109ae565b810181811067ffffffffffffffff82111715610d6f57610d6e610d18565b5b80604052505050565b6000610d826106d1565b9050610d8e8282610d47565b919050565b600067ffffffffffffffff821115610dae57610dad610d18565b5b610db7826109ae565b9050602081019050919050565b6000610dd7610dd284610d93565b610d78565b905082815260208101848484011115610df357610df2610d13565b5b610dfe848285610984565b509392505050565b600082601f830112610e1b57610e1a610d0e565b5b8151610e2b848260208601610dc4565b91505092915050565b600060208284031215610e4a57610e496106db565b5b600082015167ffffffffffffffff811115610e6857610e676106e0565b5b610e7484828501610e06565b91505092915050565b60006020820190508181036000830152610e9781846109bf565b905092915050565b600081519050610eae81610717565b92915050565b610ebd816109f8565b8114610ec857600080fd5b50565b600081519050610eda81610eb4565b92915050565b600080600060608486031215610ef957610ef86106db565b5b600084015167ffffffffffffffff811115610f1757610f166106e0565b5b610f2386828701610e06565b9350506020610f3486828701610e9f565b9250506040610f4586828701610ecb565b9150509250925092565b600081905092915050565b6000610f6582610b18565b610f6f8185610f4f565b9350610f7f818560208601610984565b80840191505092915050565b6000610f978284610f5a565b915081905092915050565b7f4e487b7100000000000000000000000000000000000000000000000000000000600052601260045260246000fd5b6000610fdc826109f8565b9150610fe7836109f8565b925082610ff757610ff6610fa2565b5b82820690509291505056fea264697066735822122052c04525182574b116b6cf5a4e58f72df0e11e02d2071924ac03991b402c74e164736f6c63430008150033",
  "linkReferences": {},
  "deployedLinkReferences": {}
}