{
  "_format": "hh-sol-artifact-1",
  "contractName": "ZybilPortal",
  "sourceName": "contracts/ZybilPortal.sol",
  "abi": [
    {
      "anonymous": false,
      "inputs": [
        {
          "indexed": false,
          "internalType": "bytes32",
          "name": "_key",
          "type": "bytes32"
        },
        {
          "indexed": false,
          "internalType": "bytes32",
          "name": "_name",
          "type": "bytes32"
        },
        {
          "indexed": false,
          "internalType": "uint256",
          "name": "_timestamp",
          "type": "uint256"
        },
        {
          "indexed": false,
          "internalType": "address",
          "name": "_address",
          "type": "address"
        },
        {
          "indexed": false,
          "internalType": "bytes32",
          "name": "_contentHash",
          "type": "bytes32"
        }
      ],
      "name": "L2Message",
      "type": "event"
    },
    {
      "inputs": [
        {
          "internalType": "address",
          "name": "_account",
          "type": "address"
        }
      ],
      "name": "getENSRecordAge",
      "outputs": [
        {
          "internalType": "string",
          "name": "_name",
          "type": "string"
        },
        {
          "internalType": "uint256",
          "name": "_timestamp",
          "type": "uint256"
        }
      ],
      "stateMutability": "view",
      "type": "function"
    },
    {
      "inputs": [
        {
          "internalType": "address",
          "name": "_registry",
          "type": "address"
        },
        {
          "internalType": "address",
          "name": "_underlying",
          "type": "address"
        },
        {
          "internalType": "bytes32",
          "name": "_l2ZybilAddress",
          "type": "bytes32"
        }
      ],
      "name": "initialize",
      "outputs": [],
      "stateMutability": "nonpayable",
      "type": "function"
    },
    {
      "inputs": [],
      "name": "l2ZybilAddress",
      "outputs": [
        {
          "internalType": "bytes32",
          "name": "",
          "type": "bytes32"
        }
      ],
      "stateMutability": "view",
      "type": "function"
    },
    {
      "inputs": [
        {
          "internalType": "uint32",
          "name": "_deadline",
          "type": "uint32"
        },
        {
          "internalType": "bytes32",
          "name": "_redemptionHash",
          "type": "bytes32"
        },
        {
          "internalType": "bytes32",
          "name": "_consumptionHash",
          "type": "bytes32"
        }
      ],
      "name": "pushENSToAztec",
      "outputs": [
        {
          "internalType": "bytes32",
          "name": "_key",
          "type": "bytes32"
        }
      ],
      "stateMutability": "payable",
      "type": "function"
    },
    {
      "inputs": [],
      "name": "registry",
      "outputs": [
        {
          "internalType": "contract IRegistry",
          "name": "",
          "type": "address"
        }
      ],
      "stateMutability": "view",
      "type": "function"
    },
    {
      "inputs": [],
      "name": "underlying",
      "outputs": [
        {
          "internalType": "contract ToyENS",
          "name": "",
          "type": "address"
        }
      ],
      "stateMutability": "view",
      "type": "function"
    }
  ],
  "bytecode": "0x608060405234801561001057600080fd5b5061120a806100206000396000f3fe6080604052600436106100555760003560e01c80636133f9851461005a5780636f307dc3146100835780637b103999146100ae578063898715d9146100d95780638bdfc69414610104578063f426f67714610134575b600080fd5b34801561006657600080fd5b50610081600480360381019061007c91906108f8565b610172565b005b34801561008f57600080fd5b50610098610270565b6040516100a591906109aa565b60405180910390f35b3480156100ba57600080fd5b506100c3610296565b6040516100d091906109e6565b60405180910390f35b3480156100e557600080fd5b506100ee6102ba565b6040516100fb9190610a10565b60405180910390f35b61011e60048036038101906101199190610a67565b6102c0565b60405161012b9190610a10565b60405180910390f35b34801561014057600080fd5b5061015b60048036038101906101569190610aba565b61050c565b604051610169929190610b90565b60405180910390f35b60001515600360009054906101000a900460ff161515146101c8576040517f08c379a00000000000000000000000000000000000000000000000000000000081526004016101bf90610c0c565b60405180910390fd5b826000806101000a81548173ffffffffffffffffffffffffffffffffffffffff021916908373ffffffffffffffffffffffffffffffffffffffff16021790555081600160006101000a81548173ffffffffffffffffffffffffffffffffffffffff021916908373ffffffffffffffffffffffffffffffffffffffff160217905550806002819055506001600360006101000a81548160ff021916908315150217905550505050565b600160009054906101000a900473ffffffffffffffffffffffffffffffffffffffff1681565b60008054906101000a900473ffffffffffffffffffffffffffffffffffffffff1681565b60025481565b60008060008054906101000a900473ffffffffffffffffffffffffffffffffffffffff1673ffffffffffffffffffffffffffffffffffffffff1663368c093c6040518163ffffffff1660e01b8152600401602060405180830381865afa15801561032e573d6000803e3d6000fd5b505050506040513d601f19601f820116820180604052508101906103529190610c6a565b90506000604051806040016040528060025481526020016001815250905060008061037c3361050c565b9150915060008261038c90610cd4565b9050600061039982610662565b905060006104388a8386336040516024016103b79493929190610d4a565b6040516020818303038152906040527e6a668d000000000000000000000000000000000000000000000000000000007bffffffffffffffffffffffffffffffffffffffffffffffffffffffff19166020820180517bffffffffffffffffffffffffffffffffffffffffffffffffffffffff83818316178352505050506107c6565b90508673ffffffffffffffffffffffffffffffffffffffff166333d49f9634888e858e6040518663ffffffff1660e01b815260040161047a9493929190610deb565b60206040518083038185885af1158015610498573d6000803e3d6000fd5b50505050506040513d601f19601f820116820180604052508101906104bd9190610e45565b97507f17bf269e84d03cb6c3a2b105a374600c6ffacd8497303700822c27fe1969194e88838633856040516104f6959493929190610e72565b60405180910390a1505050505050509392505050565b60606000600160009054906101000a900473ffffffffffffffffffffffffffffffffffffffff1673ffffffffffffffffffffffffffffffffffffffff16635c013858846040518263ffffffff1660e01b815260040161056b9190610ec5565b600060405180830381865afa158015610588573d6000803e3d6000fd5b505050506040513d6000823e3d601f19601f820116820180604052508101906105b19190611006565b9150600160009054906101000a900473ffffffffffffffffffffffffffffffffffffffff1673ffffffffffffffffffffffffffffffffffffffff1663541e771d836040518263ffffffff1660e01b815260040161060e919061104f565b600060405180830381865afa15801561062b573d6000803e3d6000fd5b505050506040513d6000823e3d601f19601f8201168201806040525081019061065491906110b2565b909150905080915050915091565b600081905060087eff00ff00ff00ff00ff00ff00ff00ff00ff00ff00ff00ff00ff00ff00ff00ff60001b8216901b60087fff00ff00ff00ff00ff00ff00ff00ff00ff00ff00ff00ff00ff00ff00ff00ff0060001b8316901c17905060107dffff0000ffff0000ffff0000ffff0000ffff0000ffff0000ffff0000ffff60001b8216901b60107fffff0000ffff0000ffff0000ffff0000ffff0000ffff0000ffff0000ffff000060001b8316901c17905060207bffffffff00000000ffffffff00000000ffffffff00000000ffffffff60001b8216901b60207fffffffff00000000ffffffff00000000ffffffff00000000ffffffff0000000060001b8316901c179050604077ffffffffffffffff0000000000000000ffffffffffffffff60001b8216901b60407fffffffffffffffff0000000000000000ffffffffffffffff000000000000000060001b8316901c179050608081901b608082901c179050919050565b60007f30644e72e131a029b85045b68181585d2833e84879b9709143e1f593f00000016002836040516107f9919061115d565b602060405180830381855afa158015610816573d6000803e3d6000fd5b5050506040513d601f19601f820116820180604052508101906108399190610e45565b60001c61084691906111a3565b60001b9050919050565b6000604051905090565b600080fd5b600080fd5b600073ffffffffffffffffffffffffffffffffffffffff82169050919050565b600061088f82610864565b9050919050565b61089f81610884565b81146108aa57600080fd5b50565b6000813590506108bc81610896565b92915050565b6000819050919050565b6108d5816108c2565b81146108e057600080fd5b50565b6000813590506108f2816108cc565b92915050565b6000806000606084860312156109115761091061085a565b5b600061091f868287016108ad565b9350506020610930868287016108ad565b9250506040610941868287016108e3565b9150509250925092565b6000819050919050565b600061097061096b61096684610864565b61094b565b610864565b9050919050565b600061098282610955565b9050919050565b600061099482610977565b9050919050565b6109a481610989565b82525050565b60006020820190506109bf600083018461099b565b92915050565b60006109d082610977565b9050919050565b6109e0816109c5565b82525050565b60006020820190506109fb60008301846109d7565b92915050565b610a0a816108c2565b82525050565b6000602082019050610a256000830184610a01565b92915050565b600063ffffffff82169050919050565b610a4481610a2b565b8114610a4f57600080fd5b50565b600081359050610a6181610a3b565b92915050565b600080600060608486031215610a8057610a7f61085a565b5b6000610a8e86828701610a52565b9350506020610a9f868287016108e3565b9250506040610ab0868287016108e3565b9150509250925092565b600060208284031215610ad057610acf61085a565b5b6000610ade848285016108ad565b91505092915050565b600081519050919050565b600082825260208201905092915050565b60005b83811015610b21578082015181840152602081019050610b06565b60008484015250505050565b6000601f19601f8301169050919050565b6000610b4982610ae7565b610b538185610af2565b9350610b63818560208601610b03565b610b6c81610b2d565b840191505092915050565b6000819050919050565b610b8a81610b77565b82525050565b60006040820190508181036000830152610baa8185610b3e565b9050610bb96020830184610b81565b9392505050565b7f416c726561647920696e697469616c697a656400000000000000000000000000600082015250565b6000610bf6601383610af2565b9150610c0182610bc0565b602082019050919050565b60006020820190508181036000830152610c2581610be9565b9050919050565b6000610c3782610884565b9050919050565b610c4781610c2c565b8114610c5257600080fd5b50565b600081519050610c6481610c3e565b92915050565b600060208284031215610c8057610c7f61085a565b5b6000610c8e84828501610c55565b91505092915050565b600081519050919050565b6000819050602082019050919050565b6000610cbe82516108c2565b80915050919050565b600082821b905092915050565b6000610cdf82610c97565b82610ce984610ca2565b9050610cf481610cb2565b92506020821015610d3457610d2f7fffffffffffffffffffffffffffffffffffffffffffffffffffffffffffffffff83602003600802610cc7565b831692505b5050919050565b610d4481610884565b82525050565b6000608082019050610d5f6000830187610a01565b610d6c6020830186610a01565b610d796040830185610b81565b610d866060830184610d3b565b95945050505050565b610d98816108c2565b82525050565b610da781610b77565b82525050565b604082016000820151610dc36000850182610d8f565b506020820151610dd66020850182610d9e565b50505050565b610de581610a2b565b82525050565b600060a082019050610e006000830187610dad565b610e0d6040830186610ddc565b610e1a6060830185610a01565b610e276080830184610a01565b95945050505050565b600081519050610e3f816108cc565b92915050565b600060208284031215610e5b57610e5a61085a565b5b6000610e6984828501610e30565b91505092915050565b600060a082019050610e876000830188610a01565b610e946020830187610a01565b610ea16040830186610b81565b610eae6060830185610d3b565b610ebb6080830184610a01565b9695505050505050565b6000602082019050610eda6000830184610d3b565b92915050565b600080fd5b600080fd5b7f4e487b7100000000000000000000000000000000000000000000000000000000600052604160045260246000fd5b610f2282610b2d565b810181811067ffffffffffffffff82111715610f4157610f40610eea565b5b80604052505050565b6000610f54610850565b9050610f608282610f19565b919050565b600067ffffffffffffffff821115610f8057610f7f610eea565b5b610f8982610b2d565b9050602081019050919050565b6000610fa9610fa484610f65565b610f4a565b905082815260208101848484011115610fc557610fc4610ee5565b5b610fd0848285610b03565b509392505050565b600082601f830112610fed57610fec610ee0565b5b8151610ffd848260208601610f96565b91505092915050565b60006020828403121561101c5761101b61085a565b5b600082015167ffffffffffffffff81111561103a5761103961085f565b5b61104684828501610fd8565b91505092915050565b600060208201905081810360008301526110698184610b3e565b905092915050565b60008151905061108081610896565b92915050565b61108f81610b77565b811461109a57600080fd5b50565b6000815190506110ac81611086565b92915050565b6000806000606084860312156110cb576110ca61085a565b5b600084015167ffffffffffffffff8111156110e9576110e861085f565b5b6110f586828701610fd8565b935050602061110686828701611071565b92505060406111178682870161109d565b9150509250925092565b600081905092915050565b600061113782610c97565b6111418185611121565b9350611151818560208601610b03565b80840191505092915050565b6000611169828461112c565b915081905092915050565b7f4e487b7100000000000000000000000000000000000000000000000000000000600052601260045260246000fd5b60006111ae82610b77565b91506111b983610b77565b9250826111c9576111c8611174565b5b82820690509291505056fea2646970667358221220775992437b5ee875c87184d78efa797081414d1c722489f5ab9960569fa3672b64736f6c63430008150033",
  "linkReferences": {},
  "deployedLinkReferences": {}
}