{
  "_format": "hh-sol-artifact-1",
  "contractName": "ZybilPortal",
  "sourceName": "contracts/ZybilPortal.sol",
  "abi": [
    {
      "anonymous": false,
      "inputs": [
        {
          "indexed": false,
          "internalType": "bytes32",
          "name": "_key",
          "type": "bytes32"
        }
      ],
      "name": "L1MSG",
      "type": "event"
    },
    {
      "anonymous": false,
      "inputs": [
        {
          "indexed": false,
          "internalType": "bytes32",
          "name": "_key",
          "type": "bytes32"
        },
        {
          "indexed": false,
          "internalType": "bytes32",
          "name": "_name",
          "type": "bytes32"
        },
        {
          "indexed": false,
          "internalType": "uint256",
          "name": "_timestamp",
          "type": "uint256"
        },
        {
          "indexed": false,
          "internalType": "address",
          "name": "_address",
          "type": "address"
        }
      ],
      "name": "L2Message",
      "type": "event"
    },
    {
      "inputs": [
        {
          "internalType": "uint256",
          "name": "_root",
          "type": "uint256"
        }
      ],
      "name": "attestToStamps",
      "outputs": [
        {
          "internalType": "bytes32",
          "name": "",
          "type": "bytes32"
        }
      ],
      "stateMutability": "nonpayable",
      "type": "function"
    },
    {
      "inputs": [],
      "name": "eas",
      "outputs": [
        {
          "internalType": "contract ToyEAS",
          "name": "",
          "type": "address"
        }
      ],
      "stateMutability": "view",
      "type": "function"
    },
    {
      "inputs": [],
      "name": "ens",
      "outputs": [
        {
          "internalType": "contract ToyENS",
          "name": "",
          "type": "address"
        }
      ],
      "stateMutability": "view",
      "type": "function"
    },
    {
      "inputs": [
        {
          "internalType": "address",
          "name": "_account",
          "type": "address"
        }
      ],
      "name": "getENSRecordAge",
      "outputs": [
        {
          "internalType": "string",
          "name": "_name",
          "type": "string"
        },
        {
          "internalType": "uint256",
          "name": "_timestamp",
          "type": "uint256"
        }
      ],
      "stateMutability": "view",
      "type": "function"
    },
    {
      "inputs": [
        {
          "internalType": "address",
          "name": "_registry",
          "type": "address"
        },
        {
          "internalType": "address",
          "name": "_ens",
          "type": "address"
        },
        {
          "internalType": "address",
          "name": "_eas",
          "type": "address"
        },
        {
          "internalType": "bytes32",
          "name": "_l2ZybilAddress",
          "type": "bytes32"
        }
      ],
      "name": "initialize",
      "outputs": [],
      "stateMutability": "nonpayable",
      "type": "function"
    },
    {
      "inputs": [],
      "name": "l2ZybilAddress",
      "outputs": [
        {
          "internalType": "bytes32",
          "name": "",
          "type": "bytes32"
        }
      ],
      "stateMutability": "view",
      "type": "function"
    },
    {
      "inputs": [
        {
          "internalType": "bytes",
          "name": "original",
          "type": "bytes"
        },
        {
          "internalType": "uint256",
          "name": "totalLength",
          "type": "uint256"
        }
      ],
      "name": "padZeros",
      "outputs": [
        {
          "internalType": "bytes",
          "name": "",
          "type": "bytes"
        }
      ],
      "stateMutability": "pure",
      "type": "function"
    },
    {
      "inputs": [
        {
          "internalType": "uint32",
          "name": "_deadline",
          "type": "uint32"
        },
        {
          "internalType": "bytes32",
          "name": "_redemptionHash",
          "type": "bytes32"
        },
        {
          "internalType": "bytes32",
          "name": "_consumptionHash",
          "type": "bytes32"
        }
      ],
      "name": "pushENSToAztec",
      "outputs": [
        {
          "internalType": "bytes32",
          "name": "_key",
          "type": "bytes32"
        }
      ],
      "stateMutability": "payable",
      "type": "function"
    },
    {
      "inputs": [],
      "name": "registry",
      "outputs": [
        {
          "internalType": "contract IRegistry",
          "name": "",
          "type": "address"
        }
      ],
      "stateMutability": "view",
      "type": "function"
    }
  ],
  "bytecode": "0x608060405234801561001057600080fd5b50611acf806100206000396000f3fe6080604052600436106100865760003560e01c806382accf831161005957806382accf8314610135578063898715d9146101725780638bdfc6941461019d578063a5f50aa3146101cd578063f426f6771461020a57610086565b80633f15457f1461008b57806363acc14d146100b65780637b103999146100df5780638150864d1461010a575b600080fd5b34801561009757600080fd5b506100a0610248565b6040516100ad9190610cb9565b60405180910390f35b3480156100c257600080fd5b506100dd60048036038101906100d89190610d5c565b61026e565b005b3480156100eb57600080fd5b506100f46103ae565b6040516101019190610de4565b60405180910390f35b34801561011657600080fd5b5061011f6103d2565b60405161012c9190610e20565b60405180910390f35b34801561014157600080fd5b5061015c60048036038101906101579190610e71565b6103f8565b6040516101699190610ead565b60405180910390f35b34801561017e57600080fd5b506101876106cf565b6040516101949190610ead565b60405180910390f35b6101b760048036038101906101b29190610f04565b6106d5565b6040516101c49190610ead565b60405180910390f35b3480156101d957600080fd5b506101f460048036038101906101ef919061109d565b61091c565b6040516102019190611178565b60405180910390f35b34801561021657600080fd5b50610231600480360381019061022c919061119a565b610a5a565b60405161023f92919061122b565b60405180910390f35b600160009054906101000a900473ffffffffffffffffffffffffffffffffffffffff1681565b60001515600460009054906101000a900460ff161515146102c4576040517f08c379a00000000000000000000000000000000000000000000000000000000081526004016102bb906112a7565b60405180910390fd5b836000806101000a81548173ffffffffffffffffffffffffffffffffffffffff021916908373ffffffffffffffffffffffffffffffffffffffff16021790555082600160006101000a81548173ffffffffffffffffffffffffffffffffffffffff021916908373ffffffffffffffffffffffffffffffffffffffff16021790555081600260006101000a81548173ffffffffffffffffffffffffffffffffffffffff021916908373ffffffffffffffffffffffffffffffffffffffff160217905550806003819055506001600460006101000a81548160ff02191690831515021790555050505050565b60008054906101000a900473ffffffffffffffffffffffffffffffffffffffff1681565b600260009054906101000a900473ffffffffffffffffffffffffffffffffffffffff1681565b6000806040518060600160405280604051806040016040528060035481526020016001815250815260200160405180604001604052803073ffffffffffffffffffffffffffffffffffffffff1681526020014681525081526020016104eb33866040516024016104699291906112d6565b6040516020818303038152906040527f63bee619000000000000000000000000000000000000000000000000000000007bffffffffffffffffffffffffffffffffffffffffffffffffffffffff19166020820180517bffffffffffffffffffffffffffffffffffffffffffffffffffffffff8381831617835250505050610bb0565b815250905060008060009054906101000a900473ffffffffffffffffffffffffffffffffffffffff1673ffffffffffffffffffffffffffffffffffffffff1663a32fbb7b6040518163ffffffff1660e01b8152600401602060405180830381865afa15801561055e573d6000803e3d6000fd5b505050506040513d601f19601f82011682018060405250810190610582919061133d565b73ffffffffffffffffffffffffffffffffffffffff166313608c9d836040518263ffffffff1660e01b81526004016105ba9190611437565b6020604051808303816000875af11580156105d9573d6000803e3d6000fd5b505050506040513d601f19601f820116820180604052508101906105fd9190611467565b9050600260009054906101000a900473ffffffffffffffffffffffffffffffffffffffff1673ffffffffffffffffffffffffffffffffffffffff16637899d57f33866040518363ffffffff1660e01b815260040161065c9291906112d6565b600060405180830381600087803b15801561067657600080fd5b505af115801561068a573d6000803e3d6000fd5b505050507f58827a33280f803cd5b5e9401ebb81ba811db9b62c255af446bbfd0105afc013816040516106bd9190610ead565b60405180910390a18092505050919050565b60035481565b60008060008054906101000a900473ffffffffffffffffffffffffffffffffffffffff1673ffffffffffffffffffffffffffffffffffffffff1663368c093c6040518163ffffffff1660e01b8152600401602060405180830381865afa158015610743573d6000803e3d6000fd5b505050506040513d601f19601f8201168201806040525081019061076791906114d2565b90506000604051806040016040528060035481526020016001815250905060008061079133610a5a565b9150915060006107a283602061091c565b6107ab90611531565b9050600061084b898385336040516024016107c99493929190611598565b6040516020818303038152906040527f5e8d7e7e000000000000000000000000000000000000000000000000000000007bffffffffffffffffffffffffffffffffffffffffffffffffffffffff19166020820180517bffffffffffffffffffffffffffffffffffffffffffffffffffffffff8381831617835250505050610bb0565b90508573ffffffffffffffffffffffffffffffffffffffff166333d49f9634878d858d6040518663ffffffff1660e01b815260040161088d949392919061161b565b60206040518083038185885af11580156108ab573d6000803e3d6000fd5b50505050506040513d601f19601f820116820180604052508101906108d09190611467565b96507f8f9818fcd5fdb4db55110b697168bc76da39b2e661860ce0b76a34408c1e47f9878385336040516109079493929190611598565b60405180910390a15050505050509392505050565b60608251821015610962576040517f08c379a0000000000000000000000000000000000000000000000000000000008152600401610959906116f8565b60405180910390fd5b60008267ffffffffffffffff81111561097e5761097d610f72565b5b6040519080825280601f01601f1916602001820160405280156109b05781602001600182028036833780820191505090505b50905060008451846109c29190611747565b905060005b8551811015610a4e578581815181106109e3576109e261177b565b5b602001015160f81c60f81b8383836109fb91906117aa565b81518110610a0c57610a0b61177b565b5b60200101907effffffffffffffffffffffffffffffffffffffffffffffffffffffffffffff1916908160001a9053508080610a46906117de565b9150506109c7565b50819250505092915050565b60606000600160009054906101000a900473ffffffffffffffffffffffffffffffffffffffff1673ffffffffffffffffffffffffffffffffffffffff16635c013858846040518263ffffffff1660e01b8152600401610ab99190611826565b600060405180830381865afa158015610ad6573d6000803e3d6000fd5b505050506040513d6000823e3d601f19601f82011682018060405250810190610aff91906118e2565b9150600160009054906101000a900473ffffffffffffffffffffffffffffffffffffffff1673ffffffffffffffffffffffffffffffffffffffff1663541e771d836040518263ffffffff1660e01b8152600401610b5c919061192b565b600060405180830381865afa158015610b79573d6000803e3d6000fd5b505050506040513d6000823e3d601f19601f82011682018060405250810190610ba29190611977565b909150905080915050915091565b60007f30644e72e131a029b85045b68181585d2833e84879b9709143e1f593f0000001600283604051610be39190611a22565b602060405180830381855afa158015610c00573d6000803e3d6000fd5b5050506040513d601f19601f82011682018060405250810190610c239190611467565b60001c610c309190611a68565b60001b9050919050565b600073ffffffffffffffffffffffffffffffffffffffff82169050919050565b6000819050919050565b6000610c7f610c7a610c7584610c3a565b610c5a565b610c3a565b9050919050565b6000610c9182610c64565b9050919050565b6000610ca382610c86565b9050919050565b610cb381610c98565b82525050565b6000602082019050610cce6000830184610caa565b92915050565b6000604051905090565b600080fd5b600080fd5b6000610cf382610c3a565b9050919050565b610d0381610ce8565b8114610d0e57600080fd5b50565b600081359050610d2081610cfa565b92915050565b6000819050919050565b610d3981610d26565b8114610d4457600080fd5b50565b600081359050610d5681610d30565b92915050565b60008060008060808587031215610d7657610d75610cde565b5b6000610d8487828801610d11565b9450506020610d9587828801610d11565b9350506040610da687828801610d11565b9250506060610db787828801610d47565b91505092959194509250565b6000610dce82610c86565b9050919050565b610dde81610dc3565b82525050565b6000602082019050610df96000830184610dd5565b92915050565b6000610e0a82610c86565b9050919050565b610e1a81610dff565b82525050565b6000602082019050610e356000830184610e11565b92915050565b6000819050919050565b610e4e81610e3b565b8114610e5957600080fd5b50565b600081359050610e6b81610e45565b92915050565b600060208284031215610e8757610e86610cde565b5b6000610e9584828501610e5c565b91505092915050565b610ea781610d26565b82525050565b6000602082019050610ec26000830184610e9e565b92915050565b600063ffffffff82169050919050565b610ee181610ec8565b8114610eec57600080fd5b50565b600081359050610efe81610ed8565b92915050565b600080600060608486031215610f1d57610f1c610cde565b5b6000610f2b86828701610eef565b9350506020610f3c86828701610d47565b9250506040610f4d86828701610d47565b9150509250925092565b600080fd5b600080fd5b6000601f19601f8301169050919050565b7f4e487b7100000000000000000000000000000000000000000000000000000000600052604160045260246000fd5b610faa82610f61565b810181811067ffffffffffffffff82111715610fc957610fc8610f72565b5b80604052505050565b6000610fdc610cd4565b9050610fe88282610fa1565b919050565b600067ffffffffffffffff82111561100857611007610f72565b5b61101182610f61565b9050602081019050919050565b82818337600083830152505050565b600061104061103b84610fed565b610fd2565b90508281526020810184848401111561105c5761105b610f5c565b5b61106784828561101e565b509392505050565b600082601f83011261108457611083610f57565b5b813561109484826020860161102d565b91505092915050565b600080604083850312156110b4576110b3610cde565b5b600083013567ffffffffffffffff8111156110d2576110d1610ce3565b5b6110de8582860161106f565b92505060206110ef85828601610e5c565b9150509250929050565b600081519050919050565b600082825260208201905092915050565b60005b83811015611133578082015181840152602081019050611118565b60008484015250505050565b600061114a826110f9565b6111548185611104565b9350611164818560208601611115565b61116d81610f61565b840191505092915050565b60006020820190508181036000830152611192818461113f565b905092915050565b6000602082840312156111b0576111af610cde565b5b60006111be84828501610d11565b91505092915050565b600081519050919050565b600082825260208201905092915050565b60006111ee826111c7565b6111f881856111d2565b9350611208818560208601611115565b61121181610f61565b840191505092915050565b61122581610e3b565b82525050565b6000604082019050818103600083015261124581856111e3565b9050611254602083018461121c565b9392505050565b7f416c726561647920696e697469616c697a656400000000000000000000000000600082015250565b60006112916013836111d2565b915061129c8261125b565b602082019050919050565b600060208201905081810360008301526112c081611284565b9050919050565b6112d081610ce8565b82525050565b60006040820190506112eb60008301856112c7565b6112f8602083018461121c565b9392505050565b600061130a82610ce8565b9050919050565b61131a816112ff565b811461132557600080fd5b50565b60008151905061133781611311565b92915050565b60006020828403121561135357611352610cde565b5b600061136184828501611328565b91505092915050565b61137381610d26565b82525050565b61138281610e3b565b82525050565b60408201600082015161139e600085018261136a565b5060208201516113b16020850182611379565b50505050565b6113c081610ce8565b82525050565b6040820160008201516113dc60008501826113b7565b5060208201516113ef6020850182611379565b50505050565b60a08201600082015161140b6000850182611388565b50602082015161141e60408501826113c6565b506040820151611431608085018261136a565b50505050565b600060a08201905061144c60008301846113f5565b92915050565b60008151905061146181610d30565b92915050565b60006020828403121561147d5761147c610cde565b5b600061148b84828501611452565b91505092915050565b600061149f82610ce8565b9050919050565b6114af81611494565b81146114ba57600080fd5b50565b6000815190506114cc816114a6565b92915050565b6000602082840312156114e8576114e7610cde565b5b60006114f6848285016114bd565b91505092915050565b6000819050602082019050919050565b600061151b8251610d26565b80915050919050565b600082821b905092915050565b600061153c826110f9565b82611546846114ff565b90506115518161150f565b925060208210156115915761158c7fffffffffffffffffffffffffffffffffffffffffffffffffffffffffffffffff83602003600802611524565b831692505b5050919050565b60006080820190506115ad6000830187610e9e565b6115ba6020830186610e9e565b6115c7604083018561121c565b6115d460608301846112c7565b95945050505050565b6040820160008201516115f3600085018261136a565b5060208201516116066020850182611379565b50505050565b61161581610ec8565b82525050565b600060a08201905061163060008301876115dd565b61163d604083018661160c565b61164a6060830185610e9e565b6116576080830184610e9e565b95945050505050565b7f546f74616c206c656e677468206d75737420626520677265617465722074686160008201527f6e206f7220657175616c20746f20746865206f726967696e616c206c656e677460208201527f6800000000000000000000000000000000000000000000000000000000000000604082015250565b60006116e26041836111d2565b91506116ed82611660565b606082019050919050565b60006020820190508181036000830152611711816116d5565b9050919050565b7f4e487b7100000000000000000000000000000000000000000000000000000000600052601160045260246000fd5b600061175282610e3b565b915061175d83610e3b565b925082820390508181111561177557611774611718565b5b92915050565b7f4e487b7100000000000000000000000000000000000000000000000000000000600052603260045260246000fd5b60006117b582610e3b565b91506117c083610e3b565b92508282019050808211156117d8576117d7611718565b5b92915050565b60006117e982610e3b565b91507fffffffffffffffffffffffffffffffffffffffffffffffffffffffffffffffff820361181b5761181a611718565b5b600182019050919050565b600060208201905061183b60008301846112c7565b92915050565b600067ffffffffffffffff82111561185c5761185b610f72565b5b61186582610f61565b9050602081019050919050565b600061188561188084611841565b610fd2565b9050828152602081018484840111156118a1576118a0610f5c565b5b6118ac848285611115565b509392505050565b600082601f8301126118c9576118c8610f57565b5b81516118d9848260208601611872565b91505092915050565b6000602082840312156118f8576118f7610cde565b5b600082015167ffffffffffffffff81111561191657611915610ce3565b5b611922848285016118b4565b91505092915050565b6000602082019050818103600083015261194581846111e3565b905092915050565b60008151905061195c81610cfa565b92915050565b60008151905061197181610e45565b92915050565b6000806000606084860312156119905761198f610cde565b5b600084015167ffffffffffffffff8111156119ae576119ad610ce3565b5b6119ba868287016118b4565b93505060206119cb8682870161194d565b92505060406119dc86828701611962565b9150509250925092565b600081905092915050565b60006119fc826110f9565b611a0681856119e6565b9350611a16818560208601611115565b80840191505092915050565b6000611a2e82846119f1565b915081905092915050565b7f4e487b7100000000000000000000000000000000000000000000000000000000600052601260045260246000fd5b6000611a7382610e3b565b9150611a7e83610e3b565b925082611a8e57611a8d611a39565b5b82820690509291505056fea264697066735822122084882989c2552dbdd19c7c01dc9c88cb9dcf73e5c8d5bba41fd9682e9b47133a64736f6c63430008150033",
  "linkReferences": {},
  "deployedLinkReferences": {}
}