{
  "_format": "hh-sol-artifact-1",
  "contractName": "ZybilPortal",
  "sourceName": "contracts/ZybilPortal.sol",
  "abi": [
    {
      "anonymous": false,
      "inputs": [
        {
          "indexed": false,
          "internalType": "bytes32",
          "name": "_sender",
          "type": "bytes32"
        },
        {
          "indexed": false,
          "internalType": "address",
          "name": "_recipient",
          "type": "address"
        },
        {
          "indexed": false,
          "internalType": "bytes32",
          "name": "_content",
          "type": "bytes32"
        }
      ],
      "name": "L1MSG",
      "type": "event"
    },
    {
      "anonymous": false,
      "inputs": [
        {
          "indexed": false,
          "internalType": "bytes32",
          "name": "_key",
          "type": "bytes32"
        },
        {
          "indexed": false,
          "internalType": "bytes32",
          "name": "_name",
          "type": "bytes32"
        },
        {
          "indexed": false,
          "internalType": "uint256",
          "name": "_timestamp",
          "type": "uint256"
        },
        {
          "indexed": false,
          "internalType": "address",
          "name": "_address",
          "type": "address"
        }
      ],
      "name": "L2Message",
      "type": "event"
    },
    {
      "inputs": [
        {
          "internalType": "uint256",
          "name": "_root",
          "type": "uint256"
        }
      ],
      "name": "attestToStamps",
      "outputs": [
        {
          "internalType": "bytes32",
          "name": "",
          "type": "bytes32"
        }
      ],
      "stateMutability": "nonpayable",
      "type": "function"
    },
    {
      "inputs": [],
      "name": "eas",
      "outputs": [
        {
          "internalType": "contract ToyEAS",
          "name": "",
          "type": "address"
        }
      ],
      "stateMutability": "view",
      "type": "function"
    },
    {
      "inputs": [],
      "name": "ens",
      "outputs": [
        {
          "internalType": "contract ToyENS",
          "name": "",
          "type": "address"
        }
      ],
      "stateMutability": "view",
      "type": "function"
    },
    {
      "inputs": [
        {
          "internalType": "address",
          "name": "_account",
          "type": "address"
        }
      ],
      "name": "getENSRecordAge",
      "outputs": [
        {
          "internalType": "string",
          "name": "_name",
          "type": "string"
        },
        {
          "internalType": "uint256",
          "name": "_timestamp",
          "type": "uint256"
        }
      ],
      "stateMutability": "view",
      "type": "function"
    },
    {
      "inputs": [
        {
          "internalType": "address",
          "name": "_registry",
          "type": "address"
        },
        {
          "internalType": "address",
          "name": "_ens",
          "type": "address"
        },
        {
          "internalType": "address",
          "name": "_eas",
          "type": "address"
        },
        {
          "internalType": "bytes32",
          "name": "_l2ZybilAddress",
          "type": "bytes32"
        }
      ],
      "name": "initialize",
      "outputs": [],
      "stateMutability": "nonpayable",
      "type": "function"
    },
    {
      "inputs": [],
      "name": "l2ZybilAddress",
      "outputs": [
        {
          "internalType": "bytes32",
          "name": "",
          "type": "bytes32"
        }
      ],
      "stateMutability": "view",
      "type": "function"
    },
    {
      "inputs": [
        {
          "internalType": "bytes",
          "name": "original",
          "type": "bytes"
        },
        {
          "internalType": "uint256",
          "name": "totalLength",
          "type": "uint256"
        }
      ],
      "name": "padZeros",
      "outputs": [
        {
          "internalType": "bytes",
          "name": "",
          "type": "bytes"
        }
      ],
      "stateMutability": "pure",
      "type": "function"
    },
    {
      "inputs": [
        {
          "internalType": "uint32",
          "name": "_deadline",
          "type": "uint32"
        },
        {
          "internalType": "bytes32",
          "name": "_redemptionHash",
          "type": "bytes32"
        },
        {
          "internalType": "bytes32",
          "name": "_consumptionHash",
          "type": "bytes32"
        }
      ],
      "name": "pushENSToAztec",
      "outputs": [
        {
          "internalType": "bytes32",
          "name": "_key",
          "type": "bytes32"
        }
      ],
      "stateMutability": "payable",
      "type": "function"
    },
    {
      "inputs": [],
      "name": "registry",
      "outputs": [
        {
          "internalType": "contract IRegistry",
          "name": "",
          "type": "address"
        }
      ],
      "stateMutability": "view",
      "type": "function"
    }
  ],
  "bytecode": "0x608060405234801561001057600080fd5b5061185d806100206000396000f3fe6080604052600436106100865760003560e01c806382accf831161005957806382accf8314610135578063898715d9146101725780638bdfc6941461019d578063a5f50aa3146101cd578063f426f6771461020a57610086565b80633f15457f1461008b57806363acc14d146100b65780637b103999146100df5780638150864d1461010a575b600080fd5b34801561009757600080fd5b506100a0610248565b6040516100ad9190610b37565b60405180910390f35b3480156100c257600080fd5b506100dd60048036038101906100d89190610bda565b61026e565b005b3480156100eb57600080fd5b506100f46103ae565b6040516101019190610c62565b60405180910390f35b34801561011657600080fd5b5061011f6103d2565b60405161012c9190610c9e565b60405180910390f35b34801561014157600080fd5b5061015c60048036038101906101579190610cef565b6103f8565b6040516101699190610d2b565b60405180910390f35b34801561017e57600080fd5b5061018761054d565b6040516101949190610d2b565b60405180910390f35b6101b760048036038101906101b29190610d82565b610553565b6040516101c49190610d2b565b60405180910390f35b3480156101d957600080fd5b506101f460048036038101906101ef9190610f1b565b61079a565b6040516102019190610ff6565b60405180910390f35b34801561021657600080fd5b50610231600480360381019061022c9190611018565b6108d8565b60405161023f9291906110a9565b60405180910390f35b600160009054906101000a900473ffffffffffffffffffffffffffffffffffffffff1681565b60001515600460009054906101000a900460ff161515146102c4576040517f08c379a00000000000000000000000000000000000000000000000000000000081526004016102bb90611125565b60405180910390fd5b836000806101000a81548173ffffffffffffffffffffffffffffffffffffffff021916908373ffffffffffffffffffffffffffffffffffffffff16021790555082600160006101000a81548173ffffffffffffffffffffffffffffffffffffffff021916908373ffffffffffffffffffffffffffffffffffffffff16021790555081600260006101000a81548173ffffffffffffffffffffffffffffffffffffffff021916908373ffffffffffffffffffffffffffffffffffffffff160217905550806003819055506001600460006101000a81548160ff02191690831515021790555050505050565b60008054906101000a900473ffffffffffffffffffffffffffffffffffffffff1681565b600260009054906101000a900473ffffffffffffffffffffffffffffffffffffffff1681565b6000806040518060600160405280604051806040016040528060035481526020016001815250815260200160405180604001604052803073ffffffffffffffffffffffffffffffffffffffff1681526020014681525081526020016104ed33863360405160240161046b93929190611154565b6040516020818303038152906040527f63bee619000000000000000000000000000000000000000000000000000000007bffffffffffffffffffffffffffffffffffffffffffffffffffffffff19166020820180517bffffffffffffffffffffffffffffffffffffffffffffffffffffffff8381831617835250505050610a2e565b81525090507fa0a7b4b27de79cf4a6e070726ef4df967fe568ac664cb5adb7c9578f3dea515281600001516000015182602001516000015183604001516040516105399392919061118b565b60405180910390a16000801b915050919050565b60035481565b60008060008054906101000a900473ffffffffffffffffffffffffffffffffffffffff1673ffffffffffffffffffffffffffffffffffffffff1663368c093c6040518163ffffffff1660e01b8152600401602060405180830381865afa1580156105c1573d6000803e3d6000fd5b505050506040513d601f19601f820116820180604052508101906105e59190611200565b90506000604051806040016040528060035481526020016001815250905060008061060f336108d8565b91509150600061062083602061079a565b6106299061125f565b905060006106c98983853360405160240161064794939291906112c6565b6040516020818303038152906040527f5e8d7e7e000000000000000000000000000000000000000000000000000000007bffffffffffffffffffffffffffffffffffffffffffffffffffffffff19166020820180517bffffffffffffffffffffffffffffffffffffffffffffffffffffffff8381831617835250505050610a2e565b90508573ffffffffffffffffffffffffffffffffffffffff166333d49f9634878d858d6040518663ffffffff1660e01b815260040161070b9493929190611367565b60206040518083038185885af1158015610729573d6000803e3d6000fd5b50505050506040513d601f19601f8201168201806040525081019061074e91906113c1565b96507f8f9818fcd5fdb4db55110b697168bc76da39b2e661860ce0b76a34408c1e47f98783853360405161078594939291906112c6565b60405180910390a15050505050509392505050565b606082518210156107e0576040517f08c379a00000000000000000000000000000000000000000000000000000000081526004016107d790611486565b60405180910390fd5b60008267ffffffffffffffff8111156107fc576107fb610df0565b5b6040519080825280601f01601f19166020018201604052801561082e5781602001600182028036833780820191505090505b509050600084518461084091906114d5565b905060005b85518110156108cc5785818151811061086157610860611509565b5b602001015160f81c60f81b8383836108799190611538565b8151811061088a57610889611509565b5b60200101907effffffffffffffffffffffffffffffffffffffffffffffffffffffffffffff1916908160001a90535080806108c49061156c565b915050610845565b50819250505092915050565b60606000600160009054906101000a900473ffffffffffffffffffffffffffffffffffffffff1673ffffffffffffffffffffffffffffffffffffffff16635c013858846040518263ffffffff1660e01b815260040161093791906115b4565b600060405180830381865afa158015610954573d6000803e3d6000fd5b505050506040513d6000823e3d601f19601f8201168201806040525081019061097d9190611670565b9150600160009054906101000a900473ffffffffffffffffffffffffffffffffffffffff1673ffffffffffffffffffffffffffffffffffffffff1663541e771d836040518263ffffffff1660e01b81526004016109da91906116b9565b600060405180830381865afa1580156109f7573d6000803e3d6000fd5b505050506040513d6000823e3d601f19601f82011682018060405250810190610a209190611705565b909150905080915050915091565b60007f30644e72e131a029b85045b68181585d2833e84879b9709143e1f593f0000001600283604051610a6191906117b0565b602060405180830381855afa158015610a7e573d6000803e3d6000fd5b5050506040513d601f19601f82011682018060405250810190610aa191906113c1565b60001c610aae91906117f6565b60001b9050919050565b600073ffffffffffffffffffffffffffffffffffffffff82169050919050565b6000819050919050565b6000610afd610af8610af384610ab8565b610ad8565b610ab8565b9050919050565b6000610b0f82610ae2565b9050919050565b6000610b2182610b04565b9050919050565b610b3181610b16565b82525050565b6000602082019050610b4c6000830184610b28565b92915050565b6000604051905090565b600080fd5b600080fd5b6000610b7182610ab8565b9050919050565b610b8181610b66565b8114610b8c57600080fd5b50565b600081359050610b9e81610b78565b92915050565b6000819050919050565b610bb781610ba4565b8114610bc257600080fd5b50565b600081359050610bd481610bae565b92915050565b60008060008060808587031215610bf457610bf3610b5c565b5b6000610c0287828801610b8f565b9450506020610c1387828801610b8f565b9350506040610c2487828801610b8f565b9250506060610c3587828801610bc5565b91505092959194509250565b6000610c4c82610b04565b9050919050565b610c5c81610c41565b82525050565b6000602082019050610c776000830184610c53565b92915050565b6000610c8882610b04565b9050919050565b610c9881610c7d565b82525050565b6000602082019050610cb36000830184610c8f565b92915050565b6000819050919050565b610ccc81610cb9565b8114610cd757600080fd5b50565b600081359050610ce981610cc3565b92915050565b600060208284031215610d0557610d04610b5c565b5b6000610d1384828501610cda565b91505092915050565b610d2581610ba4565b82525050565b6000602082019050610d406000830184610d1c565b92915050565b600063ffffffff82169050919050565b610d5f81610d46565b8114610d6a57600080fd5b50565b600081359050610d7c81610d56565b92915050565b600080600060608486031215610d9b57610d9a610b5c565b5b6000610da986828701610d6d565b9350506020610dba86828701610bc5565b9250506040610dcb86828701610bc5565b9150509250925092565b600080fd5b600080fd5b6000601f19601f8301169050919050565b7f4e487b7100000000000000000000000000000000000000000000000000000000600052604160045260246000fd5b610e2882610ddf565b810181811067ffffffffffffffff82111715610e4757610e46610df0565b5b80604052505050565b6000610e5a610b52565b9050610e668282610e1f565b919050565b600067ffffffffffffffff821115610e8657610e85610df0565b5b610e8f82610ddf565b9050602081019050919050565b82818337600083830152505050565b6000610ebe610eb984610e6b565b610e50565b905082815260208101848484011115610eda57610ed9610dda565b5b610ee5848285610e9c565b509392505050565b600082601f830112610f0257610f01610dd5565b5b8135610f12848260208601610eab565b91505092915050565b60008060408385031215610f3257610f31610b5c565b5b600083013567ffffffffffffffff811115610f5057610f4f610b61565b5b610f5c85828601610eed565b9250506020610f6d85828601610cda565b9150509250929050565b600081519050919050565b600082825260208201905092915050565b60005b83811015610fb1578082015181840152602081019050610f96565b60008484015250505050565b6000610fc882610f77565b610fd28185610f82565b9350610fe2818560208601610f93565b610feb81610ddf565b840191505092915050565b600060208201905081810360008301526110108184610fbd565b905092915050565b60006020828403121561102e5761102d610b5c565b5b600061103c84828501610b8f565b91505092915050565b600081519050919050565b600082825260208201905092915050565b600061106c82611045565b6110768185611050565b9350611086818560208601610f93565b61108f81610ddf565b840191505092915050565b6110a381610cb9565b82525050565b600060408201905081810360008301526110c38185611061565b90506110d2602083018461109a565b9392505050565b7f416c726561647920696e697469616c697a656400000000000000000000000000600082015250565b600061110f601383611050565b915061111a826110d9565b602082019050919050565b6000602082019050818103600083015261113e81611102565b9050919050565b61114e81610b66565b82525050565b60006060820190506111696000830186611145565b611176602083018561109a565b6111836040830184611145565b949350505050565b60006060820190506111a06000830186610d1c565b6111ad6020830185611145565b6111ba6040830184610d1c565b949350505050565b60006111cd82610b66565b9050919050565b6111dd816111c2565b81146111e857600080fd5b50565b6000815190506111fa816111d4565b92915050565b60006020828403121561121657611215610b5c565b5b6000611224848285016111eb565b91505092915050565b6000819050602082019050919050565b60006112498251610ba4565b80915050919050565b600082821b905092915050565b600061126a82610f77565b826112748461122d565b905061127f8161123d565b925060208210156112bf576112ba7fffffffffffffffffffffffffffffffffffffffffffffffffffffffffffffffff83602003600802611252565b831692505b5050919050565b60006080820190506112db6000830187610d1c565b6112e86020830186610d1c565b6112f5604083018561109a565b6113026060830184611145565b95945050505050565b61131481610ba4565b82525050565b61132381610cb9565b82525050565b60408201600082015161133f600085018261130b565b506020820151611352602085018261131a565b50505050565b61136181610d46565b82525050565b600060a08201905061137c6000830187611329565b6113896040830186611358565b6113966060830185610d1c565b6113a36080830184610d1c565b95945050505050565b6000815190506113bb81610bae565b92915050565b6000602082840312156113d7576113d6610b5c565b5b60006113e5848285016113ac565b91505092915050565b7f546f74616c206c656e677468206d75737420626520677265617465722074686160008201527f6e206f7220657175616c20746f20746865206f726967696e616c206c656e677460208201527f6800000000000000000000000000000000000000000000000000000000000000604082015250565b6000611470604183611050565b915061147b826113ee565b606082019050919050565b6000602082019050818103600083015261149f81611463565b9050919050565b7f4e487b7100000000000000000000000000000000000000000000000000000000600052601160045260246000fd5b60006114e082610cb9565b91506114eb83610cb9565b9250828203905081811115611503576115026114a6565b5b92915050565b7f4e487b7100000000000000000000000000000000000000000000000000000000600052603260045260246000fd5b600061154382610cb9565b915061154e83610cb9565b9250828201905080821115611566576115656114a6565b5b92915050565b600061157782610cb9565b91507fffffffffffffffffffffffffffffffffffffffffffffffffffffffffffffffff82036115a9576115a86114a6565b5b600182019050919050565b60006020820190506115c96000830184611145565b92915050565b600067ffffffffffffffff8211156115ea576115e9610df0565b5b6115f382610ddf565b9050602081019050919050565b600061161361160e846115cf565b610e50565b90508281526020810184848401111561162f5761162e610dda565b5b61163a848285610f93565b509392505050565b600082601f83011261165757611656610dd5565b5b8151611667848260208601611600565b91505092915050565b60006020828403121561168657611685610b5c565b5b600082015167ffffffffffffffff8111156116a4576116a3610b61565b5b6116b084828501611642565b91505092915050565b600060208201905081810360008301526116d38184611061565b905092915050565b6000815190506116ea81610b78565b92915050565b6000815190506116ff81610cc3565b92915050565b60008060006060848603121561171e5761171d610b5c565b5b600084015167ffffffffffffffff81111561173c5761173b610b61565b5b61174886828701611642565b9350506020611759868287016116db565b925050604061176a868287016116f0565b9150509250925092565b600081905092915050565b600061178a82610f77565b6117948185611774565b93506117a4818560208601610f93565b80840191505092915050565b60006117bc828461177f565b915081905092915050565b7f4e487b7100000000000000000000000000000000000000000000000000000000600052601260045260246000fd5b600061180182610cb9565b915061180c83610cb9565b92508261181c5761181b6117c7565b5b82820690509291505056fea264697066735822122012caf88276459a28bbc234362b46eed1497f623c8719949c5a5043539666422364736f6c63430008150033",
  "linkReferences": {},
  "deployedLinkReferences": {}
}