{
  "_format": "hh-sol-artifact-1",
  "contractName": "ZybilPortal",
  "sourceName": "contracts/ZybilPortal.sol",
  "abi": [
    {
      "anonymous": false,
      "inputs": [
        {
          "indexed": false,
          "internalType": "bytes32",
          "name": "_key",
          "type": "bytes32"
        },
        {
          "indexed": false,
          "internalType": "bytes32",
          "name": "_name",
          "type": "bytes32"
        },
        {
          "indexed": false,
          "internalType": "uint256",
          "name": "_timestamp",
          "type": "uint256"
        },
        {
          "indexed": false,
          "internalType": "address",
          "name": "_address",
          "type": "address"
        }
      ],
      "name": "L2Message",
      "type": "event"
    },
    {
      "inputs": [
        {
          "internalType": "address",
          "name": "_account",
          "type": "address"
        }
      ],
      "name": "getENSRecordAge",
      "outputs": [
        {
          "internalType": "string",
          "name": "_name",
          "type": "string"
        },
        {
          "internalType": "uint256",
          "name": "_timestamp",
          "type": "uint256"
        }
      ],
      "stateMutability": "view",
      "type": "function"
    },
    {
      "inputs": [
        {
          "internalType": "address",
          "name": "_registry",
          "type": "address"
        },
        {
          "internalType": "address",
          "name": "_underlying",
          "type": "address"
        },
        {
          "internalType": "bytes32",
          "name": "_l2ZybilAddress",
          "type": "bytes32"
        }
      ],
      "name": "initialize",
      "outputs": [],
      "stateMutability": "nonpayable",
      "type": "function"
    },
    {
      "inputs": [],
      "name": "l2ZybilAddress",
      "outputs": [
        {
          "internalType": "bytes32",
          "name": "",
          "type": "bytes32"
        }
      ],
      "stateMutability": "view",
      "type": "function"
    },
    {
      "inputs": [
        {
          "internalType": "bytes",
          "name": "original",
          "type": "bytes"
        },
        {
          "internalType": "uint256",
          "name": "totalLength",
          "type": "uint256"
        }
      ],
      "name": "padZeros",
      "outputs": [
        {
          "internalType": "bytes",
          "name": "",
          "type": "bytes"
        }
      ],
      "stateMutability": "pure",
      "type": "function"
    },
    {
      "inputs": [
        {
          "internalType": "uint32",
          "name": "_deadline",
          "type": "uint32"
        },
        {
          "internalType": "bytes32",
          "name": "_redemptionHash",
          "type": "bytes32"
        },
        {
          "internalType": "bytes32",
          "name": "_consumptionHash",
          "type": "bytes32"
        }
      ],
      "name": "pushENSToAztec",
      "outputs": [
        {
          "internalType": "bytes32",
          "name": "_key",
          "type": "bytes32"
        }
      ],
      "stateMutability": "payable",
      "type": "function"
    },
    {
      "inputs": [],
      "name": "registry",
      "outputs": [
        {
          "internalType": "contract IRegistry",
          "name": "",
          "type": "address"
        }
      ],
      "stateMutability": "view",
      "type": "function"
    },
    {
      "inputs": [],
      "name": "underlying",
      "outputs": [
        {
          "internalType": "contract ToyENS",
          "name": "",
          "type": "address"
        }
      ],
      "stateMutability": "view",
      "type": "function"
    }
  ],
  "bytecode": "0x608060405234801561001057600080fd5b50611537806100206000396000f3fe6080604052600436106100705760003560e01c8063898715d91161004e578063898715d9146100f45780638bdfc6941461011f578063a5f50aa31461014f578063f426f6771461018c57610070565b80636133f985146100755780636f307dc31461009e5780637b103999146100c9575b600080fd5b34801561008157600080fd5b5061009c60048036038101906100979190610925565b6101ca565b005b3480156100aa57600080fd5b506100b36102c8565b6040516100c091906109d7565b60405180910390f35b3480156100d557600080fd5b506100de6102ee565b6040516100eb9190610a13565b60405180910390f35b34801561010057600080fd5b50610109610312565b6040516101169190610a3d565b60405180910390f35b61013960048036038101906101349190610a94565b610318565b6040516101469190610a3d565b60405180910390f35b34801561015b57600080fd5b5061017660048036038101906101719190610c63565b61055f565b6040516101839190610d3e565b60405180910390f35b34801561019857600080fd5b506101b360048036038101906101ae9190610d60565b61069d565b6040516101c1929190610df1565b60405180910390f35b60001515600360009054906101000a900460ff16151514610220576040517f08c379a000000000000000000000000000000000000000000000000000000000815260040161021790610e6d565b60405180910390fd5b826000806101000a81548173ffffffffffffffffffffffffffffffffffffffff021916908373ffffffffffffffffffffffffffffffffffffffff16021790555081600160006101000a81548173ffffffffffffffffffffffffffffffffffffffff021916908373ffffffffffffffffffffffffffffffffffffffff160217905550806002819055506001600360006101000a81548160ff021916908315150217905550505050565b600160009054906101000a900473ffffffffffffffffffffffffffffffffffffffff1681565b60008054906101000a900473ffffffffffffffffffffffffffffffffffffffff1681565b60025481565b60008060008054906101000a900473ffffffffffffffffffffffffffffffffffffffff1673ffffffffffffffffffffffffffffffffffffffff1663368c093c6040518163ffffffff1660e01b8152600401602060405180830381865afa158015610386573d6000803e3d6000fd5b505050506040513d601f19601f820116820180604052508101906103aa9190610ecb565b9050600060405180604001604052806002548152602001600181525090506000806103d43361069d565b9150915060006103e583602061055f565b6103ee90610f2a565b9050600061048e8983853360405160240161040c9493929190610fa0565b6040516020818303038152906040527f5e8d7e7e000000000000000000000000000000000000000000000000000000007bffffffffffffffffffffffffffffffffffffffffffffffffffffffff19166020820180517bffffffffffffffffffffffffffffffffffffffffffffffffffffffff83818316178352505050506107f3565b90508573ffffffffffffffffffffffffffffffffffffffff166333d49f9634878d858d6040518663ffffffff1660e01b81526004016104d09493929190611041565b60206040518083038185885af11580156104ee573d6000803e3d6000fd5b50505050506040513d601f19601f82011682018060405250810190610513919061109b565b96507f8f9818fcd5fdb4db55110b697168bc76da39b2e661860ce0b76a34408c1e47f98783853360405161054a9493929190610fa0565b60405180910390a15050505050509392505050565b606082518210156105a5576040517f08c379a000000000000000000000000000000000000000000000000000000000815260040161059c90611160565b60405180910390fd5b60008267ffffffffffffffff8111156105c1576105c0610b02565b5b6040519080825280601f01601f1916602001820160405280156105f35781602001600182028036833780820191505090505b509050600084518461060591906111af565b905060005b855181101561069157858181518110610626576106256111e3565b5b602001015160f81c60f81b83838361063e9190611212565b8151811061064f5761064e6111e3565b5b60200101907effffffffffffffffffffffffffffffffffffffffffffffffffffffffffffff1916908160001a905350808061068990611246565b91505061060a565b50819250505092915050565b60606000600160009054906101000a900473ffffffffffffffffffffffffffffffffffffffff1673ffffffffffffffffffffffffffffffffffffffff16635c013858846040518263ffffffff1660e01b81526004016106fc919061128e565b600060405180830381865afa158015610719573d6000803e3d6000fd5b505050506040513d6000823e3d601f19601f82011682018060405250810190610742919061134a565b9150600160009054906101000a900473ffffffffffffffffffffffffffffffffffffffff1673ffffffffffffffffffffffffffffffffffffffff1663541e771d836040518263ffffffff1660e01b815260040161079f9190611393565b600060405180830381865afa1580156107bc573d6000803e3d6000fd5b505050506040513d6000823e3d601f19601f820116820180604052508101906107e591906113df565b909150905080915050915091565b60007f30644e72e131a029b85045b68181585d2833e84879b9709143e1f593f0000001600283604051610826919061148a565b602060405180830381855afa158015610843573d6000803e3d6000fd5b5050506040513d601f19601f82011682018060405250810190610866919061109b565b60001c61087391906114d0565b60001b9050919050565b6000604051905090565b600080fd5b600080fd5b600073ffffffffffffffffffffffffffffffffffffffff82169050919050565b60006108bc82610891565b9050919050565b6108cc816108b1565b81146108d757600080fd5b50565b6000813590506108e9816108c3565b92915050565b6000819050919050565b610902816108ef565b811461090d57600080fd5b50565b60008135905061091f816108f9565b92915050565b60008060006060848603121561093e5761093d610887565b5b600061094c868287016108da565b935050602061095d868287016108da565b925050604061096e86828701610910565b9150509250925092565b6000819050919050565b600061099d61099861099384610891565b610978565b610891565b9050919050565b60006109af82610982565b9050919050565b60006109c1826109a4565b9050919050565b6109d1816109b6565b82525050565b60006020820190506109ec60008301846109c8565b92915050565b60006109fd826109a4565b9050919050565b610a0d816109f2565b82525050565b6000602082019050610a286000830184610a04565b92915050565b610a37816108ef565b82525050565b6000602082019050610a526000830184610a2e565b92915050565b600063ffffffff82169050919050565b610a7181610a58565b8114610a7c57600080fd5b50565b600081359050610a8e81610a68565b92915050565b600080600060608486031215610aad57610aac610887565b5b6000610abb86828701610a7f565b9350506020610acc86828701610910565b9250506040610add86828701610910565b9150509250925092565b600080fd5b600080fd5b6000601f19601f8301169050919050565b7f4e487b7100000000000000000000000000000000000000000000000000000000600052604160045260246000fd5b610b3a82610af1565b810181811067ffffffffffffffff82111715610b5957610b58610b02565b5b80604052505050565b6000610b6c61087d565b9050610b788282610b31565b919050565b600067ffffffffffffffff821115610b9857610b97610b02565b5b610ba182610af1565b9050602081019050919050565b82818337600083830152505050565b6000610bd0610bcb84610b7d565b610b62565b905082815260208101848484011115610bec57610beb610aec565b5b610bf7848285610bae565b509392505050565b600082601f830112610c1457610c13610ae7565b5b8135610c24848260208601610bbd565b91505092915050565b6000819050919050565b610c4081610c2d565b8114610c4b57600080fd5b50565b600081359050610c5d81610c37565b92915050565b60008060408385031215610c7a57610c79610887565b5b600083013567ffffffffffffffff811115610c9857610c9761088c565b5b610ca485828601610bff565b9250506020610cb585828601610c4e565b9150509250929050565b600081519050919050565b600082825260208201905092915050565b60005b83811015610cf9578082015181840152602081019050610cde565b60008484015250505050565b6000610d1082610cbf565b610d1a8185610cca565b9350610d2a818560208601610cdb565b610d3381610af1565b840191505092915050565b60006020820190508181036000830152610d588184610d05565b905092915050565b600060208284031215610d7657610d75610887565b5b6000610d84848285016108da565b91505092915050565b600081519050919050565b600082825260208201905092915050565b6000610db482610d8d565b610dbe8185610d98565b9350610dce818560208601610cdb565b610dd781610af1565b840191505092915050565b610deb81610c2d565b82525050565b60006040820190508181036000830152610e0b8185610da9565b9050610e1a6020830184610de2565b9392505050565b7f416c726561647920696e697469616c697a656400000000000000000000000000600082015250565b6000610e57601383610d98565b9150610e6282610e21565b602082019050919050565b60006020820190508181036000830152610e8681610e4a565b9050919050565b6000610e98826108b1565b9050919050565b610ea881610e8d565b8114610eb357600080fd5b50565b600081519050610ec581610e9f565b92915050565b600060208284031215610ee157610ee0610887565b5b6000610eef84828501610eb6565b91505092915050565b6000819050602082019050919050565b6000610f1482516108ef565b80915050919050565b600082821b905092915050565b6000610f3582610cbf565b82610f3f84610ef8565b9050610f4a81610f08565b92506020821015610f8a57610f857fffffffffffffffffffffffffffffffffffffffffffffffffffffffffffffffff83602003600802610f1d565b831692505b5050919050565b610f9a816108b1565b82525050565b6000608082019050610fb56000830187610a2e565b610fc26020830186610a2e565b610fcf6040830185610de2565b610fdc6060830184610f91565b95945050505050565b610fee816108ef565b82525050565b610ffd81610c2d565b82525050565b6040820160008201516110196000850182610fe5565b50602082015161102c6020850182610ff4565b50505050565b61103b81610a58565b82525050565b600060a0820190506110566000830187611003565b6110636040830186611032565b6110706060830185610a2e565b61107d6080830184610a2e565b95945050505050565b600081519050611095816108f9565b92915050565b6000602082840312156110b1576110b0610887565b5b60006110bf84828501611086565b91505092915050565b7f546f74616c206c656e677468206d75737420626520677265617465722074686160008201527f6e206f7220657175616c20746f20746865206f726967696e616c206c656e677460208201527f6800000000000000000000000000000000000000000000000000000000000000604082015250565b600061114a604183610d98565b9150611155826110c8565b606082019050919050565b600060208201905081810360008301526111798161113d565b9050919050565b7f4e487b7100000000000000000000000000000000000000000000000000000000600052601160045260246000fd5b60006111ba82610c2d565b91506111c583610c2d565b92508282039050818111156111dd576111dc611180565b5b92915050565b7f4e487b7100000000000000000000000000000000000000000000000000000000600052603260045260246000fd5b600061121d82610c2d565b915061122883610c2d565b92508282019050808211156112405761123f611180565b5b92915050565b600061125182610c2d565b91507fffffffffffffffffffffffffffffffffffffffffffffffffffffffffffffffff820361128357611282611180565b5b600182019050919050565b60006020820190506112a36000830184610f91565b92915050565b600067ffffffffffffffff8211156112c4576112c3610b02565b5b6112cd82610af1565b9050602081019050919050565b60006112ed6112e8846112a9565b610b62565b90508281526020810184848401111561130957611308610aec565b5b611314848285610cdb565b509392505050565b600082601f83011261133157611330610ae7565b5b81516113418482602086016112da565b91505092915050565b6000602082840312156113605761135f610887565b5b600082015167ffffffffffffffff81111561137e5761137d61088c565b5b61138a8482850161131c565b91505092915050565b600060208201905081810360008301526113ad8184610da9565b905092915050565b6000815190506113c4816108c3565b92915050565b6000815190506113d981610c37565b92915050565b6000806000606084860312156113f8576113f7610887565b5b600084015167ffffffffffffffff8111156114165761141561088c565b5b6114228682870161131c565b9350506020611433868287016113b5565b9250506040611444868287016113ca565b9150509250925092565b600081905092915050565b600061146482610cbf565b61146e818561144e565b935061147e818560208601610cdb565b80840191505092915050565b60006114968284611459565b915081905092915050565b7f4e487b7100000000000000000000000000000000000000000000000000000000600052601260045260246000fd5b60006114db82610c2d565b91506114e683610c2d565b9250826114f6576114f56114a1565b5b82820690509291505056fea2646970667358221220e3f9fdbdfa55451f1e7845ad400ef3d00917c3c81f385a4b4076a2d3155515df64736f6c63430008150033",
  "linkReferences": {},
  "deployedLinkReferences": {}
}