{
  "_format": "hh-sol-artifact-1",
  "contractName": "ToyENS",
  "sourceName": "contracts/ToyENS.sol",
  "abi": [
    {
      "anonymous": false,
      "inputs": [
        {
          "indexed": false,
          "internalType": "string",
          "name": "name",
          "type": "string"
        },
        {
          "indexed": false,
          "internalType": "address",
          "name": "addr",
          "type": "address"
        }
      ],
      "name": "Set",
      "type": "event"
    },
    {
      "inputs": [
        {
          "internalType": "string",
          "name": "",
          "type": "string"
        }
      ],
      "name": "_addrs",
      "outputs": [
        {
          "internalType": "address",
          "name": "",
          "type": "address"
        }
      ],
      "stateMutability": "view",
      "type": "function"
    },
    {
      "inputs": [],
      "name": "all",
      "outputs": [
        {
          "internalType": "string[]",
          "name": "names",
          "type": "string[]"
        },
        {
          "internalType": "address[]",
          "name": "addrs",
          "type": "address[]"
        }
      ],
      "stateMutability": "view",
      "type": "function"
    },
    {
      "inputs": [
        {
          "internalType": "string",
          "name": "name",
          "type": "string"
        }
      ],
      "name": "get",
      "outputs": [
        {
          "internalType": "address payable",
          "name": "addr",
          "type": "address"
        }
      ],
      "stateMutability": "view",
      "type": "function"
    },
    {
      "inputs": [
        {
          "internalType": "string",
          "name": "name",
          "type": "string"
        },
        {
          "internalType": "address",
          "name": "addr",
          "type": "address"
        }
      ],
      "name": "set",
      "outputs": [],
      "stateMutability": "nonpayable",
      "type": "function"
    },
    {
      "inputs": [
        {
          "internalType": "string[]",
          "name": "names",
          "type": "string[]"
        },
        {
          "internalType": "address[]",
          "name": "addrs",
          "type": "address[]"
        }
      ],
      "name": "set",
      "outputs": [],
      "stateMutability": "nonpayable",
      "type": "function"
    }
  ],
  "bytecode": "0x608060405234801561001057600080fd5b50610b45806100206000396000f3fe608060405234801561001057600080fd5b50600436106100575760003560e01c806310c4e8b01461005c578063693ec85e1461007b578063a815ff15146100a6578063e726da78146100bb578063eba97ad7146100ef575b600080fd5b610064610102565b604051610072929190610550565b60405180910390f35b61008e61008936600461063d565b6102b4565b6040516001600160a01b039091168152602001610072565b6100b96100b436600461069b565b610332565b005b61008e6100c9366004610705565b80516020818301810180516000825292820191909301209152546001600160a01b031681565b6100b96100fd3660046107fb565b61048e565b6060806001805480602002602001604051908101604052809291908181526020016000905b828210156101d357838290600052602060002001805461014690610867565b80601f016020809104026020016040519081016040528092919081815260200182805461017290610867565b80156101bf5780601f10610194576101008083540402835291602001916101bf565b820191906000526020600020905b8154815290600101906020018083116101a257829003601f168201915b505050505081526020019060010190610127565b505050509150815167ffffffffffffffff8111156101f3576101f36106ef565b60405190808252806020026020018201604052801561021c578160200160208202803683370190505b50905060005b6001548110156102af576000838281518110610240576102406108a1565b602002602001015160405161025591906108b7565b9081526040519081900360200190205482516001600160a01b0390911690839083908110610285576102856108a1565b6001600160a01b0390921660209283029190910190910152806102a7816108d3565b915050610222565b509091565b60008083836040516102c79291906108fa565b90815260405160209181900382018120546001600160a01b03169250821515916102f591869186910161090a565b6040516020818303038152906040529061032b5760405162461bcd60e51b81526004016103229190610943565b60405180910390fd5b5092915050565b6001600160a01b0381166103945760405162461bcd60e51b815260206004820152602360248201527f546f79454e533a2063616e6e6f74207265636f72642061206e616d652061732060448201526203078360ec1b6064820152608401610322565b60006001600160a01b0316600084846040516103b19291906108fa565b908152604051908190036020019020546001600160a01b03160361040d576001805480820182556000919091527fb10e2d527612073b26eecdfd717e6a320cf44b4afac2b0732d9fcbe2b7fa0cf60161040b8385836109ac565b505b80600084846040516104209291906108fa565b90815260405190819003602001812080546001600160a01b03939093166001600160a01b0319909316929092179091557f496595ced95720268cf8bc60bae3f35024ff2a130f73ac4e20f5c1eaca35db999061048190859085908590610a6c565b60405180910390a1505050565b60005b838110156104f9576104e78585838181106104ae576104ae6108a1565b90506020028101906104c09190610aad565b8585858181106104d2576104d26108a1565b90506020020160208101906100b49190610af4565b806104f1816108d3565b915050610491565b5050505050565b60005b8381101561051b578181015183820152602001610503565b50506000910152565b6000815180845261053c816020860160208601610500565b601f01601f19169290920160200192915050565b6000604082016040835280855180835260608501915060608160051b8601019250602080880160005b838110156105a757605f19888703018552610595868351610524565b95509382019390820190600101610579565b50508584038187015286518085528782019482019350915060005b828110156105e75784516001600160a01b0316845293810193928101926001016105c2565b5091979650505050505050565b60008083601f84011261060657600080fd5b50813567ffffffffffffffff81111561061e57600080fd5b60208301915083602082850101111561063657600080fd5b9250929050565b6000806020838503121561065057600080fd5b823567ffffffffffffffff81111561066757600080fd5b610673858286016105f4565b90969095509350505050565b80356001600160a01b038116811461069657600080fd5b919050565b6000806000604084860312156106b057600080fd5b833567ffffffffffffffff8111156106c757600080fd5b6106d3868287016105f4565b90945092506106e690506020850161067f565b90509250925092565b634e487b7160e01b600052604160045260246000fd5b60006020828403121561071757600080fd5b813567ffffffffffffffff8082111561072f57600080fd5b818401915084601f83011261074357600080fd5b813581811115610755576107556106ef565b604051601f8201601f19908116603f0116810190838211818310171561077d5761077d6106ef565b8160405282815287602084870101111561079657600080fd5b826020860160208301376000928101602001929092525095945050505050565b60008083601f8401126107c857600080fd5b50813567ffffffffffffffff8111156107e057600080fd5b6020830191508360208260051b850101111561063657600080fd5b6000806000806040858703121561081157600080fd5b843567ffffffffffffffff8082111561082957600080fd5b610835888389016107b6565b9096509450602087013591508082111561084e57600080fd5b5061085b878288016107b6565b95989497509550505050565b600181811c9082168061087b57607f821691505b60208210810361089b57634e487b7160e01b600052602260045260246000fd5b50919050565b634e487b7160e01b600052603260045260246000fd5b600082516108c9818460208701610500565b9190910192915050565b6000600182016108f357634e487b7160e01b600052601160045260246000fd5b5060010190565b8183823760009101908152919050565b7f546f79454e533a2061646472657373206e6f7420666f756e6420666f7220000081528183601e83013760009101601e01908152919050565b6020815260006109566020830184610524565b9392505050565b601f8211156109a757600081815260208120601f850160051c810160208610156109845750805b601f850160051c820191505b818110156109a357828155600101610990565b5050505b505050565b67ffffffffffffffff8311156109c4576109c46106ef565b6109d8836109d28354610867565b8361095d565b6000601f841160018114610a0c57600085156109f45750838201355b600019600387901b1c1916600186901b1783556104f9565b600083815260209020601f19861690835b82811015610a3d5786850135825560209485019460019092019101610a1d565b5086821015610a5a5760001960f88860031b161c19848701351681555b505060018560011b0183555050505050565b6040815282604082015282846060830137600060608483018101919091526001600160a01b03929092166020820152601f909201601f191690910101919050565b6000808335601e19843603018112610ac457600080fd5b83018035915067ffffffffffffffff821115610adf57600080fd5b60200191503681900382131561063657600080fd5b600060208284031215610b0657600080fd5b6109568261067f56fea2646970667358221220ae7fe26289a125a8a1aafb2066a406013e523b8e3e7b56c54a4ca149f4d2056764736f6c63430008140033",
  "linkReferences": {},
  "deployedLinkReferences": {}
}